{
  "_format": "hh-sol-artifact-1",
  "contractName": "CeloPay",
  "sourceName": "contracts/NyaayaPay.sol",
  "abi": [
    {
      "inputs": [
        {
          "internalType": "address",
          "name": "tokenAddress",
          "type": "address"
        }
      ],
      "stateMutability": "nonpayable",
      "type": "constructor"
    },
    {
      "anonymous": false,
      "inputs": [
        {
          "indexed": true,
          "internalType": "bytes32",
          "name": "circleId",
          "type": "bytes32"
        },
        {
          "indexed": false,
          "internalType": "string",
          "name": "name",
          "type": "string"
        },
        {
          "indexed": true,
          "internalType": "address",
          "name": "createdBy",
          "type": "address"
        }
      ],
      "name": "CircleCreated",
      "type": "event"
    },
    {
      "anonymous": false,
      "inputs": [
        {
          "indexed": true,
          "internalType": "bytes32",
          "name": "requestId",
          "type": "bytes32"
        },
        {
          "indexed": true,
          "internalType": "address",
          "name": "approver",
          "type": "address"
        }
      ],
      "name": "LoanApproved",
      "type": "event"
    },
    {
      "anonymous": false,
      "inputs": [
        {
          "indexed": true,
          "internalType": "bytes32",
          "name": "requestId",
          "type": "bytes32"
        }
      ],
      "name": "LoanFinalized",
      "type": "event"
    },
    {
      "anonymous": false,
      "inputs": [
        {
          "indexed": true,
          "internalType": "bytes32",
          "name": "requestId",
          "type": "bytes32"
        },
        {
          "indexed": true,
          "internalType": "address",
          "name": "payer",
          "type": "address"
        }
      ],
      "name": "LoanRepaid",
      "type": "event"
    },
    {
      "anonymous": false,
      "inputs": [
        {
          "indexed": true,
          "internalType": "bytes32",
          "name": "requestId",
          "type": "bytes32"
        },
        {
          "indexed": true,
          "internalType": "bytes32",
          "name": "circleId",
          "type": "bytes32"
        },
        {
          "indexed": true,
          "internalType": "address",
          "name": "borrower",
          "type": "address"
        },
        {
          "indexed": false,
          "internalType": "uint256",
          "name": "amount",
          "type": "uint256"
        }
      ],
      "name": "LoanRequested",
      "type": "event"
    },
    {
      "anonymous": false,
      "inputs": [
        {
          "indexed": true,
          "internalType": "bytes32",
          "name": "circleId",
          "type": "bytes32"
        },
        {
          "indexed": true,
          "internalType": "address",
          "name": "member",
          "type": "address"
        }
      ],
      "name": "MemberJoined",
      "type": "event"
    },
    {
      "inputs": [
        {
          "internalType": "bytes32",
          "name": "requestId",
          "type": "bytes32"
        }
      ],
      "name": "approveLoan",
      "outputs": [],
      "stateMutability": "nonpayable",
      "type": "function"
    },
    {
      "inputs": [
        {
          "internalType": "bytes32",
          "name": "",
          "type": "bytes32"
        },
        {
          "internalType": "uint256",
          "name": "",
          "type": "uint256"
        }
      ],
      "name": "circleMembers",
      "outputs": [
        {
          "internalType": "address",
          "name": "",
          "type": "address"
        }
      ],
      "stateMutability": "view",
      "type": "function"
    },
    {
      "inputs": [
        {
          "internalType": "bytes32",
          "name": "",
          "type": "bytes32"
        }
      ],
      "name": "circles",
      "outputs": [
        {
          "internalType": "string",
          "name": "name",
          "type": "string"
        },
        {
          "internalType": "string",
          "name": "description",
          "type": "string"
        },
        {
          "internalType": "address",
          "name": "createdBy",
          "type": "address"
        },
        {
          "internalType": "uint256",
          "name": "createdAt",
          "type": "uint256"
        },
        {
          "internalType": "bool",
          "name": "exists",
          "type": "bool"
        }
      ],
      "stateMutability": "view",
      "type": "function"
    },
    {
      "inputs": [
        {
          "internalType": "string",
          "name": "name",
          "type": "string"
        },
        {
          "internalType": "string",
          "name": "description",
          "type": "string"
        }
      ],
      "name": "createCircle",
      "outputs": [
        {
          "internalType": "bytes32",
          "name": "",
          "type": "bytes32"
        }
      ],
      "stateMutability": "nonpayable",
      "type": "function"
    },
    {
      "inputs": [
        {
          "internalType": "bytes32",
          "name": "requestId",
          "type": "bytes32"
        }
      ],
      "name": "disburse",
      "outputs": [],
      "stateMutability": "nonpayable",
      "type": "function"
    },
    {
      "inputs": [
        {
          "internalType": "bytes32",
          "name": "circleId",
          "type": "bytes32"
        },
        {
          "internalType": "address",
          "name": "user",
          "type": "address"
        }
      ],
      "name": "isMember",
      "outputs": [
        {
          "internalType": "bool",
          "name": "",
          "type": "bool"
        }
      ],
      "stateMutability": "view",
      "type": "function"
    },
    {
      "inputs": [
        {
          "internalType": "bytes32",
          "name": "circleId",
          "type": "bytes32"
        }
      ],
      "name": "joinCircle",
      "outputs": [],
      "stateMutability": "nonpayable",
      "type": "function"
    },
    {
      "inputs": [
        {
          "internalType": "bytes32",
          "name": "",
          "type": "bytes32"
        }
      ],
      "name": "loanRequests",
      "outputs": [
        {
          "internalType": "address",
          "name": "borrower",
          "type": "address"
        },
        {
          "internalType": "bytes32",
          "name": "circleId",
          "type": "bytes32"
        },
        {
          "internalType": "uint256",
          "name": "amount",
          "type": "uint256"
        },
        {
          "internalType": "uint8",
          "name": "installments",
          "type": "uint8"
        },
        {
          "internalType": "bool",
          "name": "approved",
          "type": "bool"
        },
        {
          "internalType": "bool",
          "name": "repaid",
          "type": "bool"
        },
        {
          "internalType": "uint256",
          "name": "createdAt",
          "type": "uint256"
        }
      ],
      "stateMutability": "view",
      "type": "function"
    },
    {
      "inputs": [
        {
          "internalType": "bytes32",
          "name": "requestId",
          "type": "bytes32"
        },
        {
          "internalType": "uint256",
          "name": "amount",
          "type": "uint256"
        }
      ],
      "name": "repay",
      "outputs": [],
      "stateMutability": "nonpayable",
      "type": "function"
    },
    {
      "inputs": [
        {
          "internalType": "bytes32",
          "name": "circleId",
          "type": "bytes32"
        },
        {
          "internalType": "uint256",
          "name": "amount",
          "type": "uint256"
        },
        {
          "internalType": "uint8",
          "name": "installments",
          "type": "uint8"
        }
      ],
      "name": "requestLoan",
      "outputs": [
        {
          "internalType": "bytes32",
          "name": "",
          "type": "bytes32"
        }
      ],
      "stateMutability": "nonpayable",
      "type": "function"
    },
    {
      "inputs": [],
      "name": "token",
      "outputs": [
        {
          "internalType": "contract IERC20",
          "name": "",
          "type": "address"
        }
      ],
      "stateMutability": "view",
      "type": "function"
    }
  ],
  "bytecode": "0x608060405234801561001057600080fd5b5060405161164038038061164083398101604081905261002f91610054565b600080546001600160a01b0319166001600160a01b0392909216919091179055610084565b60006020828403121561006657600080fd5b81516001600160a01b038116811461007d57600080fd5b9392505050565b6115ad806100936000396000f3fe608060405234801561001057600080fd5b50600436106100a85760003560e01c806395db59571161007157806395db595714610149578063a120cb15146101ed578063bbfe6e9514610200578063c4194fd414610213578063deeb945714610226578063fc0c546a1461024a57600080fd5b8062f989ad146100ad57806303e1712d146100c257806310ad56b3146100f25780633180d309146101155780636d99b77014610136575b600080fd5b6100c06100bb3660046110fd565b61025d565b005b6100d56100d03660046110fd565b610481565b6040516001600160a01b0390911681526020015b60405180910390f35b61010561010036600461111f565b6104b9565b60405190151581526020016100e9565b6101286101233660046111a4565b610528565b6040519081526020016100e9565b610128610144366004611210565b61076e565b6101a861015736600461124f565b60036020819052600091825260409091208054600182015460028301549383015460058401546006909401546001600160a01b03909316949193919260ff9182169280831692610100909104169087565b604080516001600160a01b03909816885260208801969096529486019390935260ff909116606085015215156080840152151560a083015260c082015260e0016100e9565b6100c06101fb36600461124f565b610a0f565b6100c061020e36600461124f565b610b9c565b6100c061022136600461124f565b610dcf565b61023961023436600461124f565b610f03565b6040516100e99594939291906112b8565b6000546100d5906001600160a01b031681565b600082815260036020526040902080546001600160a01b031661029b5760405162461bcd60e51b815260040161029290611306565b60405180910390fd5b80546001600160a01b031633146102e45760405162461bcd60e51b815260206004820152600d60248201526c27b7363c903137b93937bbb2b960991b6044820152606401610292565b6005810154610100900460ff161561032f5760405162461bcd60e51b815260206004820152600e60248201526d105b1c9958591e481c995c185a5960921b6044820152606401610292565b80600201548210156103775760405162461bcd60e51b815260206004820152601160248201527052657061792066756c6c202864656d6f2960781b6044820152606401610292565b6000546040516323b872dd60e01b8152336004820152306024820152604481018490526001600160a01b03909116906323b872dd906064016020604051808303816000875af11580156103ce573d6000803e3d6000fd5b505050506040513d601f19601f820116820180604052508101906103f2919061132a565b61043e5760405162461bcd60e51b815260206004820152601960248201527f7265706179207472616e7366657246726f6d206661696c6564000000000000006044820152606401610292565b60058101805461ff001916610100179055604051339084907f8daf861cd83df9ee5bdd1881cc2e0ac722103d7b2a952fc76573658ca88c450390600090a3505050565b6002602052816000526040600020818154811061049d57600080fd5b6000918252602090912001546001600160a01b03169150829050565b6000828152600260205260408120815b815481101561051b57836001600160a01b03168282815481106104ee576104ee611353565b6000918252602090912001546001600160a01b03160361051357600192505050610522565b6001016104c9565b5060009150505b92915050565b60008061056b3387878080601f01602080910402602001604051908101604052809392919081815260200183838082843760009201919091525061105092505050565b60008181526001602052604090206004015490915060ff16156105c05760405162461bcd60e51b815260206004820152600d60248201526c436972636c652065786973747360981b6044820152606401610292565b6040518060a0016040528087878080601f016020809104026020016040519081016040528093929190818152602001838380828437600092019190915250505090825250604080516020601f880181900481028201810190925286815291810191908790879081908401838280828437600092018290525093855250503360208085019190915242604080860191909152600160609095018590528684529390525020815181906106719082611409565b50602082015160018201906106869082611409565b50604082810151600283810180546001600160a01b03199081166001600160a01b03909416939093179055606085015160038501556080909401516004909301805460ff191693151593909317909255600084815260209384528181208054600181018255908252939020909201805433921682179055905182907f91ba44b69fe4ba6ccde9e39f0a619e7da0f43eed96b6b39439b2a4080907d6f990610730908a908a906114c9565b60405180910390a3604051339082907fdabee0b25f35888f14428f2369f0d67a033a857623827e3efa07eb83471170aa90600090a395945050505050565b60008381526001602052604081206004015460ff166107bb5760405162461bcd60e51b81526020600482015260096024820152684e6f20636972636c6560b81b6044820152606401610292565b6107c584336104b9565b6107fe5760405162461bcd60e51b815260206004820152600a602482015269129bda5b88199a5c9cdd60b21b6044820152606401610292565b6000831161083f5760405162461bcd60e51b815260206004820152600e60248201526d125b9d985b1a5908185b5bdd5b9d60921b6044820152606401610292565b60008260ff161180156108565750600c8260ff1611155b6108965760405162461bcd60e51b8152602060048201526011602482015270312d313220696e7374616c6c6d656e747360781b6044820152606401610292565b6040516bffffffffffffffffffffffff193360601b166020820152603481018590526054810184905242607482015260009060940160408051808303601f1901815282825280516020918201206101008401835233845281840189815284840189815260ff898116606080890191825260808901818152600060a08b0181905260c08b018190524260e08c01528781526003808a529990208a5181546001600160a01b0319166001600160a01b0390911617815595516001870155935160028601559051968401805460ff191697909216969096179055518051929650939493909261098a92600485019290910190611083565b5060a082015160058201805460c085015115156101000261ff00199315159390931661ffff199091161791909117905560e0909101516006909101556040513390879084907f03749de3078f93d7b956b89b687a5c680b2c720a54d3b284334264b586f6bb8e906109fe908a815260200190565b60405180910390a450949350505050565b600081815260036020526040902080546001600160a01b0316610a445760405162461bcd60e51b815260040161029290611306565b600581015460ff16610a875760405162461bcd60e51b815260206004820152600c60248201526b139bdd08185c1c1c9bdd995960a21b6044820152606401610292565b6005810154610100900460ff1615610ad25760405162461bcd60e51b815260206004820152600e60248201526d105b1c9958591e481c995c185a5960921b6044820152606401610292565b600054815460028301546040516323b872dd60e01b81523360048201526001600160a01b03928316602482015260448101919091529116906323b872dd906064016020604051808303816000875af1158015610b32573d6000803e3d6000fd5b505050506040513d601f19601f82011682018060405250810190610b56919061132a565b610b985760405162461bcd60e51b81526020600482015260136024820152721d1c985b9cd9995c919c9bdb4819985a5b1959606a1b6044820152606401610292565b5050565b600081815260036020526040902080546001600160a01b0316610bd15760405162461bcd60e51b815260040161029290611306565b610bdf8160010154336104b9565b610c1b5760405162461bcd60e51b815260206004820152600d60248201526c4e6f7420696e20636972636c6560981b6044820152606401610292565b600581015460ff1615610c635760405162461bcd60e51b815260206004820152601060248201526f105b1c9958591e48185c1c1c9bdd995960821b6044820152606401610292565b60005b6004820154811015610cee57336001600160a01b0316826004018281548110610c9157610c91611353565b6000918252602090912001546001600160a01b031603610ce65760405162461bcd60e51b815260206004820152601060248201526f105b1c9958591e48185c1c1c9bdd995960821b6044820152606401610292565b600101610c66565b506004810180546001810182556000918252602082200180546001600160a01b03191633908117909155604051909184917f1d4f194ee627e89d67973cf84b5a14659617529a015cb0349ef616e635614eb19190a3600181015460009081526002602081905260409091205460048301549091111580610d8a57506004820154601e908290610d7e9060646114f8565b610d88919061151d565b115b15610dca5760058201805460ff1916600117905560405183907fb5ee3c32f169a091c6f491e1dd7870c3c53e7b3aa3b601aa1a024ab7d4d939a590600090a25b505050565b60008181526001602052604090206004015460ff16610e1c5760405162461bcd60e51b81526020600482015260096024820152684e6f20636972636c6560b81b6044820152606401610292565b6000818152600260205260408120905b8154811015610eac57336001600160a01b0316828281548110610e5157610e51611353565b6000918252602090912001546001600160a01b031603610ea45760405162461bcd60e51b815260206004820152600e60248201526d20b63932b0b23c9036b2b6b132b960911b6044820152606401610292565b600101610e2c565b50805460018101825560008281526020812090910180546001600160a01b03191633908117909155604051909184917fdabee0b25f35888f14428f2369f0d67a033a857623827e3efa07eb83471170aa9190a35050565b600160205260009081526040902080548190610f1e9061137f565b80601f0160208091040260200160405190810160405280929190818152602001828054610f4a9061137f565b8015610f975780601f10610f6c57610100808354040283529160200191610f97565b820191906000526020600020905b815481529060010190602001808311610f7a57829003601f168201915b505050505090806001018054610fac9061137f565b80601f0160208091040260200160405190810160405280929190818152602001828054610fd89061137f565b80156110255780601f10610ffa57610100808354040283529160200191611025565b820191906000526020600020905b81548152906001019060200180831161100857829003601f168201915b505050506002830154600384015460049094015492936001600160a01b039091169290915060ff1685565b6000828260405160200161106592919061153f565b60405160208183030381529060405280519060200120905092915050565b8280548282559060005260206000209081019282156110d8579160200282015b828111156110d857825182546001600160a01b0319166001600160a01b039091161782556020909201916001909101906110a3565b506110e49291506110e8565b5090565b5b808211156110e457600081556001016110e9565b6000806040838503121561111057600080fd5b50508035926020909101359150565b6000806040838503121561113257600080fd5b8235915060208301356001600160a01b038116811461115057600080fd5b809150509250929050565b60008083601f84011261116d57600080fd5b50813567ffffffffffffffff81111561118557600080fd5b60208301915083602082850101111561119d57600080fd5b9250929050565b600080600080604085870312156111ba57600080fd5b843567ffffffffffffffff808211156111d257600080fd5b6111de8883890161115b565b909650945060208701359150808211156111f757600080fd5b506112048782880161115b565b95989497509550505050565b60008060006060848603121561122557600080fd5b8335925060208401359150604084013560ff8116811461124457600080fd5b809150509250925092565b60006020828403121561126157600080fd5b5035919050565b60005b8381101561128357818101518382015260200161126b565b50506000910152565b600081518084526112a4816020860160208601611268565b601f01601f19169290920160200192915050565b60a0815260006112cb60a083018861128c565b82810360208401526112dd818861128c565b6001600160a01b0396909616604084015250506060810192909252151560809091015292915050565b6020808252600a9082015269139bc81c995c5d595cdd60b21b604082015260600190565b60006020828403121561133c57600080fd5b8151801515811461134c57600080fd5b9392505050565b634e487b7160e01b600052603260045260246000fd5b634e487b7160e01b600052604160045260246000fd5b600181811c9082168061139357607f821691505b6020821081036113b357634e487b7160e01b600052602260045260246000fd5b50919050565b601f821115610dca576000816000526020600020601f850160051c810160208610156113e25750805b601f850160051c820191505b81811015611401578281556001016113ee565b505050505050565b815167ffffffffffffffff81111561142357611423611369565b61143781611431845461137f565b846113b9565b602080601f83116001811461146c57600084156114545750858301515b600019600386901b1c1916600185901b178555611401565b600085815260208120601f198616915b8281101561149b5788860151825594840194600190910190840161147c565b50858210156114b95787850151600019600388901b60f8161c191681555b5050505050600190811b01905550565b60208152816020820152818360408301376000818301604090810191909152601f909201601f19160101919050565b808202811582820484141761052257634e487b7160e01b600052601160045260246000fd5b60008261153a57634e487b7160e01b600052601260045260246000fd5b500490565b6bffffffffffffffffffffffff198360601b16815260008251611569816014850160208701611268565b91909101601401939250505056fea264697066735822122037c1dfa7daf0638f673c04a57b10469f7d421d9c781fea9f33089e11a98a8d8864736f6c63430008180033",
  "linkReferences": {},
  "deployedLinkReferences": {}
}