{
  "_format": "hh-sol-artifact-1",
  "contractName": "AllowlistPolicy",
  "sourceName": "contracts/Policy.sol",
  "abi": [
    {
      "inputs": [],
      "stateMutability": "nonpayable",
      "type": "constructor"
    },
    {
      "anonymous": false,
      "inputs": [
        {
          "indexed": true,
          "internalType": "address",
          "name": "user",
          "type": "address"
        },
        {
          "indexed": false,
          "internalType": "bool",
          "name": "status",
          "type": "bool"
        }
      ],
      "name": "Approved",
      "type": "event"
    },
    {
      "inputs": [
        {
          "internalType": "address",
          "name": "",
          "type": "address"
        }
      ],
      "name": "approved",
      "outputs": [
        {
          "internalType": "bool",
          "name": "",
          "type": "bool"
        }
      ],
      "stateMutability": "view",
      "type": "function"
    },
    {
      "inputs": [
        {
          "internalType": "address",
          "name": "user",
          "type": "address"
        },
        {
          "internalType": "uint256",
          "name": "",
          "type": "uint256"
        }
      ],
      "name": "canBorrow",
      "outputs": [
        {
          "internalType": "bool",
          "name": "",
          "type": "bool"
        }
      ],
      "stateMutability": "view",
      "type": "function"
    },
    {
      "inputs": [],
      "name": "owner",
      "outputs": [
        {
          "internalType": "address",
          "name": "",
          "type": "address"
        }
      ],
      "stateMutability": "view",
      "type": "function"
    },
    {
      "inputs": [
        {
          "internalType": "address",
          "name": "user",
          "type": "address"
        },
        {
          "internalType": "bool",
          "name": "status",
          "type": "bool"
        }
      ],
      "name": "setApproved",
      "outputs": [],
      "stateMutability": "nonpayable",
      "type": "function"
    },
    {
      "inputs": [
        {
          "internalType": "address",
          "name": "o",
          "type": "address"
        }
      ],
      "name": "setOwner",
      "outputs": [],
      "stateMutability": "nonpayable",
      "type": "function"
    }
  ],
  "bytecode": "0x608060405234801561001057600080fd5b50600080546001600160a01b031916331790556102f8806100326000396000f3fe608060405234801561001057600080fd5b50600436106100575760003560e01c806313af40351461005c57806384cfb680146100715780638da5cb5b14610084578063cf8c8c44146100b4578063d8b964e6146100f1575b600080fd5b61006f61006a36600461023a565b610114565b005b61006f61007f36600461025c565b61017d565b600054610097906001600160a01b031681565b6040516001600160a01b0390911681526020015b60405180910390f35b6100e16100c2366004610298565b506001600160a01b031660009081526001602052604090205460ff1690565b60405190151581526020016100ab565b6100e16100ff36600461023a565b60016020526000908152604090205460ff1681565b6000546001600160a01b0316331461015b5760405162461bcd60e51b815260206004820152600560248201526427aba722a960d91b60448201526064015b60405180910390fd5b600080546001600160a01b0319166001600160a01b0392909216919091179055565b6000546001600160a01b031633146101bf5760405162461bcd60e51b815260206004820152600560248201526427aba722a960d91b6044820152606401610152565b6001600160a01b038216600081815260016020908152604091829020805460ff191685151590811790915591519182527fbfb2a5467a7553002a13c4482affe6110fc4b3aa01828fb3669f5386cc62b4a3910160405180910390a25050565b80356001600160a01b038116811461023557600080fd5b919050565b60006020828403121561024c57600080fd5b6102558261021e565b9392505050565b6000806040838503121561026f57600080fd5b6102788361021e565b91506020830135801515811461028d57600080fd5b809150509250929050565b600080604083850312156102ab57600080fd5b6102b48361021e565b94602093909301359350505056fea2646970667358221220f7574f1a80f556737aa21e0c4b2aa175a08f966173b5b66d5dfa20539e28b57364736f6c63430008180033",
  "linkReferences": {},
  "deployedLinkReferences": {}
}