{
  "_format": "hh-sol-artifact-1",
  "contractName": "KeyRegistry",
  "sourceName": "contracts/KeyRegistry.sol",
  "abi": [
    {
      "anonymous": false,
      "inputs": [
        {
          "indexed": true,
          "internalType": "address",
          "name": "user",
          "type": "address"
        },
        {
          "indexed": false,
          "internalType": "string",
          "name": "kyber",
          "type": "string"
        },
        {
          "indexed": false,
          "internalType": "string",
          "name": "dilithium",
          "type": "string"
        }
      ],
      "name": "KeysUpdated",
      "type": "event"
    },
    {
      "inputs": [
        {
          "internalType": "address",
          "name": "user",
          "type": "address"
        }
      ],
      "name": "getKeys",
      "outputs": [
        {
          "internalType": "string",
          "name": "",
          "type": "string"
        },
        {
          "internalType": "string",
          "name": "",
          "type": "string"
        },
        {
          "internalType": "bool",
          "name": "",
          "type": "bool"
        }
      ],
      "stateMutability": "view",
      "type": "function"
    },
    {
      "inputs": [
        {
          "internalType": "string",
          "name": "kyber",
          "type": "string"
        },
        {
          "internalType": "string",
          "name": "dilithium",
          "type": "string"
        }
      ],
      "name": "setKeys",
      "outputs": [],
      "stateMutability": "nonpayable",
      "type": "function"
    }
  ],
  "bytecode": "0x608060405234801561001057600080fd5b5061063e806100206000396000f3fe608060405234801561001057600080fd5b50600436106100365760003560e01c806334e80c341461003b578063bba610b014610066575b600080fd5b61004e6100493660046102e9565b61007b565b60405161005d9392919061035f565b60405180910390f35b6100796100743660046103e0565b6101d5565b005b6001600160a01b0381166000908152602081905260408120600281015481546060938493909290918291600183019160ff9091169083906100bb9061044c565b80601f01602080910402602001604051908101604052809291908181526020018280546100e79061044c565b80156101345780601f1061010957610100808354040283529160200191610134565b820191906000526020600020905b81548152906001019060200180831161011757829003601f168201915b505050505092508180546101479061044c565b80601f01602080910402602001604051908101604052809291908181526020018280546101739061044c565b80156101c05780601f10610195576101008083540402835291602001916101c0565b820191906000526020600020905b8154815290600101906020018083116101a357829003601f168201915b50505050509150935093509350509193909250565b604051806060016040528085858080601f016020809104026020016040519081016040528093929190818152602001838380828437600092019190915250505090825250604080516020601f8601819004810282018101909252848152918101919085908590819084018382808284376000920182905250938552505060016020938401525033815290819052604090208151819061027490826104ed565b506020820151600182019061028990826104ed565b50604091820151600291909101805460ff19169115159190911790555133907f43b4642feec8581adb7b81b5d61f6b36f0b879343e117c428ef66306d763ba51906102db9087908790879087906105d6565b60405180910390a250505050565b6000602082840312156102fb57600080fd5b81356001600160a01b038116811461031257600080fd5b9392505050565b6000815180845260005b8181101561033f57602081850181015186830182015201610323565b506000602082860101526020601f19601f83011685010191505092915050565b6060815260006103726060830186610319565b82810360208401526103848186610319565b9150508215156040830152949350505050565b60008083601f8401126103a957600080fd5b50813567ffffffffffffffff8111156103c157600080fd5b6020830191508360208285010111156103d957600080fd5b9250929050565b600080600080604085870312156103f657600080fd5b843567ffffffffffffffff8082111561040e57600080fd5b61041a88838901610397565b9096509450602087013591508082111561043357600080fd5b5061044087828801610397565b95989497509550505050565b600181811c9082168061046057607f821691505b60208210810361048057634e487b7160e01b600052602260045260246000fd5b50919050565b634e487b7160e01b600052604160045260246000fd5b601f8211156104e8576000816000526020600020601f850160051c810160208610156104c55750805b601f850160051c820191505b818110156104e4578281556001016104d1565b5050505b505050565b815167ffffffffffffffff81111561050757610507610486565b61051b81610515845461044c565b8461049c565b602080601f83116001811461055057600084156105385750858301515b600019600386901b1c1916600185901b1785556104e4565b600085815260208120601f198616915b8281101561057f57888601518255948401946001909101908401610560565b508582101561059d5787850151600019600388901b60f8161c191681555b5050505050600190811b01905550565b81835281816020850137506000828201602090810191909152601f909101601f19169091010190565b6040815260006105ea6040830186886105ad565b82810360208401526105fd8185876105ad565b97965050505050505056fea264697066735822122087047158e41a34d86451f80cd24f0a1db3fd9039bd34745728d852e30c9ca37564736f6c63430008180033",
  "linkReferences": {},
  "deployedLinkReferences": {}
}