{"contracts/ChatStore.sol":{"ChatStore":{"abi":[{"anonymous":false,"inputs":[{"indexed":true,"internalType":"bytes32","name":"chatId","type":"bytes32"},{"indexed":true,"internalType":"address","name":"author","type":"address"},{"indexed":false,"internalType":"uint64","name":"timestamp","type":"uint64"},{"indexed":false,"internalType":"bytes","name":"content","type":"bytes"}],"name":"MessageAppended","type":"event"},{"inputs":[{"internalType":"bytes32","name":"chatId","type":"bytes32"},{"internalType":"bytes","name":"content","type":"bytes"}],"name":"append","outputs":[],"stateMutability":"nonpayable","type":"function"},{"inputs":[{"internalType":"bytes32","name":"chatId","type":"bytes32"}],"name":"count","outputs":[{"internalType":"uint256","name":"","type":"uint256"}],"stateMutability":"view","type":"function"},{"inputs":[{"internalType":"bytes32","name":"chatId","type":"bytes32"},{"internalType":"uint256","name":"start","type":"uint256"},{"internalType":"uint256","name":"end","type":"uint256"}],"name":"getRange","outputs":[{"internalType":"address[]","name":"authors","type":"address[]"},{"internalType":"uint64[]","name":"timestamps","type":"uint64[]"},{"internalType":"bytes[]","name":"contents","type":"bytes[]"}],"stateMutability":"view","type":"function"}],"evm":{"bytecode":{"linkReferences":{},"object":"608060405234801561001057600080fd5b50610900806100206000396000f3fe608060405234801561001057600080fd5b50600436106100415760003560e01c8063039d31e9146100465780637937354c1461005b578063b843e9641461008e575b600080fd5b6100596100543660046104e7565b6100b0565b005b61007b610069366004610563565b60009081526020819052604090205490565b6040519081526020015b60405180910390f35b6100a161009c36600461057c565b6101db565b60405161008593929190610630565b6000808481526020019081526020016000206040518060600160405280336001600160a01b031681526020014267ffffffffffffffff16815260200184848080601f0160208091040260200160405190810160405280939291908181526020018383808284376000920182905250939094525050835460018181018655948252602091829020845160029092020180549285015167ffffffffffffffff16600160a01b026001600160e01b03199093166001600160a01b0390921691909117919091178155604083015192939092908301915061018d9082610772565b505050336001600160a01b0316837f0b7c125eb9dfd1f5a99e71b78092729fdbdb964d323f6a86b65425c6179523894285856040516101ce93929190610832565b60405180910390a3505050565b6060806060848410156102215760405162461bcd60e51b81526020600482015260096024820152686261642072616e676560b81b60448201526064015b60405180910390fd5b600061022d8686610888565b60008881526020819052604090205490915061024982886108a1565b111561027d5760405162461bcd60e51b815260206004820152600360248201526237b7b160e91b6044820152606401610218565b8067ffffffffffffffff811115610296576102966106d1565b6040519080825280602002602001820160405280156102bf578160200160208202803683370190505b5093508067ffffffffffffffff8111156102db576102db6106d1565b604051908082528060200260200182016040528015610304578160200160208202803683370190505b5092508067ffffffffffffffff811115610320576103206106d1565b60405190808252806020026020018201604052801561035357816020015b606081526020019060019003908161033e5790505b50915060005b818110156104dc576000888152602081905260408120610379838a6108a1565b81548110610389576103896108b4565b60009182526020909120600290910201805487519192506001600160a01b0316908790849081106103bc576103bc6108b4565b60200260200101906001600160a01b031690816001600160a01b0316815250508060000160149054906101000a900467ffffffffffffffff16858381518110610407576104076108b4565b602002602001019067ffffffffffffffff16908167ffffffffffffffff1681525050806001018054610438906106e7565b80601f0160208091040260200160405190810160405280929190818152602001828054610464906106e7565b80156104b15780601f10610486576101008083540402835291602001916104b1565b820191906000526020600020905b81548152906001019060200180831161049457829003601f168201915b50505050508483815181106104c8576104c86108b4565b602090810291909101015250600101610359565b505093509350939050565b6000806000604084860312156104fc57600080fd5b83359250602084013567ffffffffffffffff8082111561051b57600080fd5b818601915086601f83011261052f57600080fd5b81358181111561053e57600080fd5b87602082850101111561055057600080fd5b6020830194508093505050509250925092565b60006020828403121561057557600080fd5b5035919050565b60008060006060848603121561059157600080fd5b505081359360208301359350604090920135919050565b600082825180855260208086019550808260051b8401018186016000805b8581101561062257601f1980888603018b5283518051808752845b818110156105fc578281018901518882018a015288016105e1565b5086810188018590529b87019b601f0190911690940185019350918401916001016105c6565b509198975050505050505050565b606080825284519082018190526000906020906080840190828801845b828110156106725781516001600160a01b03168452928401929084019060010161064d565b5050508381038285015285518082528683019183019060005b818110156106b157835167ffffffffffffffff168352928401929184019160010161068b565b505084810360408601526106c581876105a8565b98975050505050505050565b634e487b7160e01b600052604160045260246000fd5b600181811c908216806106fb57607f821691505b60208210810361071b57634e487b7160e01b600052602260045260246000fd5b50919050565b601f82111561076d576000816000526020600020601f850160051c8101602086101561074a5750805b601f850160051c820191505b8181101561076957828155600101610756565b5050505b505050565b815167ffffffffffffffff81111561078c5761078c6106d1565b6107a08161079a84546106e7565b84610721565b602080601f8311600181146107d557600084156107bd5750858301515b600019600386901b1c1916600185901b178555610769565b600085815260208120601f198616915b82811015610804578886015182559484019460019091019084016107e5565b50858210156108225787850151600019600388901b60f8161c191681555b5050505050600190811b01905550565b67ffffffffffffffff8416815260406020820152816040820152818360608301376000818301606090810191909152601f909201601f1916010192915050565b634e487b7160e01b600052601160045260246000fd5b8181038181111561089b5761089b610872565b92915050565b8082018082111561089b5761089b610872565b634e487b7160e01b600052603260045260246000fdfea264697066735822122059f155d0ef93a445c8a95119cc0d01be1ee60aad9a7e70164c450e38c116160564736f6c63430008180033","opcodes":"PUSH1 0x80 PUSH1 0x40 MSTORE CALLVALUE DUP1 ISZERO PUSH2 0x10 JUMPI PUSH1 0x0 DUP1 REVERT JUMPDEST POP PUSH2 0x900 DUP1 PUSH2 0x20 PUSH1 0x0 CODECOPY PUSH1 0x0 RETURN INVALID PUSH1 0x80 PUSH1 0x40 MSTORE CALLVALUE DUP1 ISZERO PUSH2 0x10 JUMPI PUSH1 0x0 DUP1 REVERT JUMPDEST POP PUSH1 0x4 CALLDATASIZE LT PUSH2 0x41 JUMPI PUSH1 0x0 CALLDATALOAD PUSH1 0xE0 SHR DUP1 PUSH4 0x39D31E9 EQ PUSH2 0x46 JUMPI DUP1 PUSH4 0x7937354C EQ PUSH2 0x5B JUMPI DUP1 PUSH4 0xB843E964 EQ PUSH2 0x8E JUMPI JUMPDEST PUSH1 0x0 DUP1 REVERT JUMPDEST PUSH2 0x59 PUSH2 0x54 CALLDATASIZE PUSH1 0x4 PUSH2 0x4E7 JUMP JUMPDEST PUSH2 0xB0 JUMP JUMPDEST STOP JUMPDEST PUSH2 0x7B PUSH2 0x69 CALLDATASIZE PUSH1 0x4 PUSH2 0x563 JUMP JUMPDEST PUSH1 0x0 SWAP1 DUP2 MSTORE PUSH1 0x20 DUP2 SWAP1 MSTORE PUSH1 0x40 SWAP1 KECCAK256 SLOAD SWAP1 JUMP JUMPDEST PUSH1 0x40 MLOAD SWAP1 DUP2 MSTORE PUSH1 0x20 ADD JUMPDEST PUSH1 0x40 MLOAD DUP1 SWAP2 SUB SWAP1 RETURN JUMPDEST PUSH2 0xA1 PUSH2 0x9C CALLDATASIZE PUSH1 0x4 PUSH2 0x57C JUMP JUMPDEST PUSH2 0x1DB JUMP JUMPDEST PUSH1 0x40 MLOAD PUSH2 0x85 SWAP4 SWAP3 SWAP2 SWAP1 PUSH2 0x630 JUMP JUMPDEST PUSH1 0x0 DUP1 DUP5 DUP2 MSTORE PUSH1 0x20 ADD SWAP1 DUP2 MSTORE PUSH1 0x20 ADD PUSH1 0x0 KECCAK256 PUSH1 0x40 MLOAD DUP1 PUSH1 0x60 ADD PUSH1 0x40 MSTORE DUP1 CALLER PUSH1 0x1 PUSH1 0x1 PUSH1 0xA0 SHL SUB AND DUP2 MSTORE PUSH1 0x20 ADD TIMESTAMP PUSH8 0xFFFFFFFFFFFFFFFF AND DUP2 MSTORE PUSH1 0x20 ADD DUP5 DUP5 DUP1 DUP1 PUSH1 0x1F ADD PUSH1 0x20 DUP1 SWAP2 DIV MUL PUSH1 0x20 ADD PUSH1 0x40 MLOAD SWAP1 DUP2 ADD PUSH1 0x40 MSTORE DUP1 SWAP4 SWAP3 SWAP2 SWAP1 DUP2 DUP2 MSTORE PUSH1 0x20 ADD DUP4 DUP4 DUP1 DUP3 DUP5 CALLDATACOPY PUSH1 0x0 SWAP3 ADD DUP3 SWAP1 MSTORE POP SWAP4 SWAP1 SWAP5 MSTORE POP POP DUP4 SLOAD PUSH1 0x1 DUP2 DUP2 ADD DUP7 SSTORE SWAP5 DUP3 MSTORE PUSH1 0x20 SWAP2 DUP3 SWAP1 KECCAK256 DUP5 MLOAD PUSH1 0x2 SWAP1 SWAP3 MUL ADD DUP1 SLOAD SWAP3 DUP6 ADD MLOAD PUSH8 0xFFFFFFFFFFFFFFFF AND PUSH1 0x1 PUSH1 0xA0 SHL MUL PUSH1 0x1 PUSH1 0x1 PUSH1 0xE0 SHL SUB NOT SWAP1 SWAP4 AND PUSH1 0x1 PUSH1 0x1 PUSH1 0xA0 SHL SUB SWAP1 SWAP3 AND SWAP2 SWAP1 SWAP2 OR SWAP2 SWAP1 SWAP2 OR DUP2 SSTORE PUSH1 0x40 DUP4 ADD MLOAD SWAP3 SWAP4 SWAP1 SWAP3 SWAP1 DUP4 ADD SWAP2 POP PUSH2 0x18D SWAP1 DUP3 PUSH2 0x772 JUMP JUMPDEST POP POP POP CALLER PUSH1 0x1 PUSH1 0x1 PUSH1 0xA0 SHL SUB AND DUP4 PUSH32 0xB7C125EB9DFD1F5A99E71B78092729FDBDB964D323F6A86B65425C617952389 TIMESTAMP DUP6 DUP6 PUSH1 0x40 MLOAD PUSH2 0x1CE SWAP4 SWAP3 SWAP2 SWAP1 PUSH2 0x832 JUMP JUMPDEST PUSH1 0x40 MLOAD DUP1 SWAP2 SUB SWAP1 LOG3 POP POP POP JUMP JUMPDEST PUSH1 0x60 DUP1 PUSH1 0x60 DUP5 DUP5 LT ISZERO PUSH2 0x221 JUMPI PUSH1 0x40 MLOAD PUSH3 0x461BCD PUSH1 0xE5 SHL DUP2 MSTORE PUSH1 0x20 PUSH1 0x4 DUP3 ADD MSTORE PUSH1 0x9 PUSH1 0x24 DUP3 ADD MSTORE PUSH9 0x6261642072616E6765 PUSH1 0xB8 SHL PUSH1 0x44 DUP3 ADD MSTORE PUSH1 0x64 ADD JUMPDEST PUSH1 0x40 MLOAD DUP1 SWAP2 SUB SWAP1 REVERT JUMPDEST PUSH1 0x0 PUSH2 0x22D DUP7 DUP7 PUSH2 0x888 JUMP JUMPDEST PUSH1 0x0 DUP9 DUP2 MSTORE PUSH1 0x20 DUP2 SWAP1 MSTORE PUSH1 0x40 SWAP1 KECCAK256 SLOAD SWAP1 SWAP2 POP PUSH2 0x249 DUP3 DUP9 PUSH2 0x8A1 JUMP JUMPDEST GT ISZERO PUSH2 0x27D JUMPI PUSH1 0x40 MLOAD PUSH3 0x461BCD PUSH1 0xE5 SHL DUP2 MSTORE PUSH1 0x20 PUSH1 0x4 DUP3 ADD MSTORE PUSH1 0x3 PUSH1 0x24 DUP3 ADD MSTORE PUSH3 0x37B7B1 PUSH1 0xE9 SHL PUSH1 0x44 DUP3 ADD MSTORE PUSH1 0x64 ADD PUSH2 0x218 JUMP JUMPDEST DUP1 PUSH8 0xFFFFFFFFFFFFFFFF DUP2 GT ISZERO PUSH2 0x296 JUMPI PUSH2 0x296 PUSH2 0x6D1 JUMP JUMPDEST PUSH1 0x40 MLOAD SWAP1 DUP1 DUP3 MSTORE DUP1 PUSH1 0x20 MUL PUSH1 0x20 ADD DUP3 ADD PUSH1 0x40 MSTORE DUP1 ISZERO PUSH2 0x2BF JUMPI DUP2 PUSH1 0x20 ADD PUSH1 0x20 DUP3 MUL DUP1 CALLDATASIZE DUP4 CALLDATACOPY ADD SWAP1 POP JUMPDEST POP SWAP4 POP DUP1 PUSH8 0xFFFFFFFFFFFFFFFF DUP2 GT ISZERO PUSH2 0x2DB JUMPI PUSH2 0x2DB PUSH2 0x6D1 JUMP JUMPDEST PUSH1 0x40 MLOAD SWAP1 DUP1 DUP3 MSTORE DUP1 PUSH1 0x20 MUL PUSH1 0x20 ADD DUP3 ADD PUSH1 0x40 MSTORE DUP1 ISZERO PUSH2 0x304 JUMPI DUP2 PUSH1 0x20 ADD PUSH1 0x20 DUP3 MUL DUP1 CALLDATASIZE DUP4 CALLDATACOPY ADD SWAP1 POP JUMPDEST POP SWAP3 POP DUP1 PUSH8 0xFFFFFFFFFFFFFFFF DUP2 GT ISZERO PUSH2 0x320 JUMPI PUSH2 0x320 PUSH2 0x6D1 JUMP JUMPDEST PUSH1 0x40 MLOAD SWAP1 DUP1 DUP3 MSTORE DUP1 PUSH1 0x20 MUL PUSH1 0x20 ADD DUP3 ADD PUSH1 0x40 MSTORE DUP1 ISZERO PUSH2 0x353 JUMPI DUP2 PUSH1 0x20 ADD JUMPDEST PUSH1 0x60 DUP2 MSTORE PUSH1 0x20 ADD SWAP1 PUSH1 0x1 SWAP1 SUB SWAP1 DUP2 PUSH2 0x33E JUMPI SWAP1 POP JUMPDEST POP SWAP2 POP PUSH1 0x0 JUMPDEST DUP2 DUP2 LT ISZERO PUSH2 0x4DC JUMPI PUSH1 0x0 DUP9 DUP2 MSTORE PUSH1 0x20 DUP2 SWAP1 MSTORE PUSH1 0x40 DUP2 KECCAK256 PUSH2 0x379 DUP4 DUP11 PUSH2 0x8A1 JUMP JUMPDEST DUP2 SLOAD DUP2 LT PUSH2 0x389 JUMPI PUSH2 0x389 PUSH2 0x8B4 JUMP JUMPDEST PUSH1 0x0 SWAP2 DUP3 MSTORE PUSH1 0x20 SWAP1 SWAP2 KECCAK256 PUSH1 0x2 SWAP1 SWAP2 MUL ADD DUP1 SLOAD DUP8 MLOAD SWAP2 SWAP3 POP PUSH1 0x1 PUSH1 0x1 PUSH1 0xA0 SHL SUB AND SWAP1 DUP8 SWAP1 DUP5 SWAP1 DUP2 LT PUSH2 0x3BC JUMPI PUSH2 0x3BC PUSH2 0x8B4 JUMP JUMPDEST PUSH1 0x20 MUL PUSH1 0x20 ADD ADD SWAP1 PUSH1 0x1 PUSH1 0x1 PUSH1 0xA0 SHL SUB AND SWAP1 DUP2 PUSH1 0x1 PUSH1 0x1 PUSH1 0xA0 SHL SUB AND DUP2 MSTORE POP POP DUP1 PUSH1 0x0 ADD PUSH1 0x14 SWAP1 SLOAD SWAP1 PUSH2 0x100 EXP SWAP1 DIV PUSH8 0xFFFFFFFFFFFFFFFF AND DUP6 DUP4 DUP2 MLOAD DUP2 LT PUSH2 0x407 JUMPI PUSH2 0x407 PUSH2 0x8B4 JUMP JUMPDEST PUSH1 0x20 MUL PUSH1 0x20 ADD ADD SWAP1 PUSH8 0xFFFFFFFFFFFFFFFF AND SWAP1 DUP2 PUSH8 0xFFFFFFFFFFFFFFFF AND DUP2 MSTORE POP POP DUP1 PUSH1 0x1 ADD DUP1 SLOAD PUSH2 0x438 SWAP1 PUSH2 0x6E7 JUMP JUMPDEST DUP1 PUSH1 0x1F ADD PUSH1 0x20 DUP1 SWAP2 DIV MUL PUSH1 0x20 ADD PUSH1 0x40 MLOAD SWAP1 DUP2 ADD PUSH1 0x40 MSTORE DUP1 SWAP3 SWAP2 SWAP1 DUP2 DUP2 MSTORE PUSH1 0x20 ADD DUP3 DUP1 SLOAD PUSH2 0x464 SWAP1 PUSH2 0x6E7 JUMP JUMPDEST DUP1 ISZERO PUSH2 0x4B1 JUMPI DUP1 PUSH1 0x1F LT PUSH2 0x486 JUMPI PUSH2 0x100 DUP1 DUP4 SLOAD DIV MUL DUP4 MSTORE SWAP2 PUSH1 0x20 ADD SWAP2 PUSH2 0x4B1 JUMP JUMPDEST DUP3 ADD SWAP2 SWAP1 PUSH1 0x0 MSTORE PUSH1 0x20 PUSH1 0x0 KECCAK256 SWAP1 JUMPDEST DUP2 SLOAD DUP2 MSTORE SWAP1 PUSH1 0x1 ADD SWAP1 PUSH1 0x20 ADD DUP1 DUP4 GT PUSH2 0x494 JUMPI DUP3 SWAP1 SUB PUSH1 0x1F AND DUP3 ADD SWAP2 JUMPDEST POP POP POP POP POP DUP5 DUP4 DUP2 MLOAD DUP2 LT PUSH2 0x4C8 JUMPI PUSH2 0x4C8 PUSH2 0x8B4 JUMP JUMPDEST PUSH1 0x20 SWAP1 DUP2 MUL SWAP2 SWAP1 SWAP2 ADD ADD MSTORE POP PUSH1 0x1 ADD PUSH2 0x359 JUMP JUMPDEST POP POP SWAP4 POP SWAP4 POP SWAP4 SWAP1 POP JUMP JUMPDEST PUSH1 0x0 DUP1 PUSH1 0x0 PUSH1 0x40 DUP5 DUP7 SUB SLT ISZERO PUSH2 0x4FC JUMPI PUSH1 0x0 DUP1 REVERT JUMPDEST DUP4 CALLDATALOAD SWAP3 POP PUSH1 0x20 DUP5 ADD CALLDATALOAD PUSH8 0xFFFFFFFFFFFFFFFF DUP1 DUP3 GT ISZERO PUSH2 0x51B JUMPI PUSH1 0x0 DUP1 REVERT JUMPDEST DUP2 DUP7 ADD SWAP2 POP DUP7 PUSH1 0x1F DUP4 ADD SLT PUSH2 0x52F JUMPI PUSH1 0x0 DUP1 REVERT JUMPDEST DUP2 CALLDATALOAD DUP2 DUP2 GT ISZERO PUSH2 0x53E JUMPI PUSH1 0x0 DUP1 REVERT JUMPDEST DUP8 PUSH1 0x20 DUP3 DUP6 ADD ADD GT ISZERO PUSH2 0x550 JUMPI PUSH1 0x0 DUP1 REVERT JUMPDEST PUSH1 0x20 DUP4 ADD SWAP5 POP DUP1 SWAP4 POP POP POP POP SWAP3 POP SWAP3 POP SWAP3 JUMP JUMPDEST PUSH1 0x0 PUSH1 0x20 DUP3 DUP5 SUB SLT ISZERO PUSH2 0x575 JUMPI PUSH1 0x0 DUP1 REVERT JUMPDEST POP CALLDATALOAD SWAP2 SWAP1 POP JUMP JUMPDEST PUSH1 0x0 DUP1 PUSH1 0x0 PUSH1 0x60 DUP5 DUP7 SUB SLT ISZERO PUSH2 0x591 JUMPI PUSH1 0x0 DUP1 REVERT JUMPDEST POP POP DUP2 CALLDATALOAD SWAP4 PUSH1 0x20 DUP4 ADD CALLDATALOAD SWAP4 POP PUSH1 0x40 SWAP1 SWAP3 ADD CALLDATALOAD SWAP2 SWAP1 POP JUMP JUMPDEST PUSH1 0x0 DUP3 DUP3 MLOAD DUP1 DUP6 MSTORE PUSH1 0x20 DUP1 DUP7 ADD SWAP6 POP DUP1 DUP3 PUSH1 0x5 SHL DUP5 ADD ADD DUP2 DUP7 ADD PUSH1 0x0 DUP1 JUMPDEST DUP6 DUP2 LT ISZERO PUSH2 0x622 JUMPI PUSH1 0x1F NOT DUP1 DUP9 DUP7 SUB ADD DUP12 MSTORE DUP4 MLOAD DUP1 MLOAD DUP1 DUP8 MSTORE DUP5 JUMPDEST DUP2 DUP2 LT ISZERO PUSH2 0x5FC JUMPI DUP3 DUP2 ADD DUP10 ADD MLOAD DUP9 DUP3 ADD DUP11 ADD MSTORE DUP9 ADD PUSH2 0x5E1 JUMP JUMPDEST POP DUP7 DUP2 ADD DUP9 ADD DUP6 SWAP1 MSTORE SWAP12 DUP8 ADD SWAP12 PUSH1 0x1F ADD SWAP1 SWAP2 AND SWAP1 SWAP5 ADD DUP6 ADD SWAP4 POP SWAP2 DUP5 ADD SWAP2 PUSH1 0x1 ADD PUSH2 0x5C6 JUMP JUMPDEST POP SWAP2 SWAP9 SWAP8 POP POP POP POP POP POP POP POP JUMP JUMPDEST PUSH1 0x60 DUP1 DUP3 MSTORE DUP5 MLOAD SWAP1 DUP3 ADD DUP2 SWAP1 MSTORE PUSH1 0x0 SWAP1 PUSH1 0x20 SWAP1 PUSH1 0x80 DUP5 ADD SWAP1 DUP3 DUP9 ADD DUP5 JUMPDEST DUP3 DUP2 LT ISZERO PUSH2 0x672 JUMPI DUP2 MLOAD PUSH1 0x1 PUSH1 0x1 PUSH1 0xA0 SHL SUB AND DUP5 MSTORE SWAP3 DUP5 ADD SWAP3 SWAP1 DUP5 ADD SWAP1 PUSH1 0x1 ADD PUSH2 0x64D JUMP JUMPDEST POP POP POP DUP4 DUP2 SUB DUP3 DUP6 ADD MSTORE DUP6 MLOAD DUP1 DUP3 MSTORE DUP7 DUP4 ADD SWAP2 DUP4 ADD SWAP1 PUSH1 0x0 JUMPDEST DUP2 DUP2 LT ISZERO PUSH2 0x6B1 JUMPI DUP4 MLOAD PUSH8 0xFFFFFFFFFFFFFFFF AND DUP4 MSTORE SWAP3 DUP5 ADD SWAP3 SWAP2 DUP5 ADD SWAP2 PUSH1 0x1 ADD PUSH2 0x68B JUMP JUMPDEST POP POP DUP5 DUP2 SUB PUSH1 0x40 DUP7 ADD MSTORE PUSH2 0x6C5 DUP2 DUP8 PUSH2 0x5A8 JUMP JUMPDEST SWAP9 SWAP8 POP POP POP POP POP POP POP POP JUMP JUMPDEST PUSH4 0x4E487B71 PUSH1 0xE0 SHL PUSH1 0x0 MSTORE PUSH1 0x41 PUSH1 0x4 MSTORE PUSH1 0x24 PUSH1 0x0 REVERT JUMPDEST PUSH1 0x1 DUP2 DUP2 SHR SWAP1 DUP3 AND DUP1 PUSH2 0x6FB JUMPI PUSH1 0x7F DUP3 AND SWAP2 POP JUMPDEST PUSH1 0x20 DUP3 LT DUP2 SUB PUSH2 0x71B JUMPI PUSH4 0x4E487B71 PUSH1 0xE0 SHL PUSH1 0x0 MSTORE PUSH1 0x22 PUSH1 0x4 MSTORE PUSH1 0x24 PUSH1 0x0 REVERT JUMPDEST POP SWAP2 SWAP1 POP JUMP JUMPDEST PUSH1 0x1F DUP3 GT ISZERO PUSH2 0x76D JUMPI PUSH1 0x0 DUP2 PUSH1 0x0 MSTORE PUSH1 0x20 PUSH1 0x0 KECCAK256 PUSH1 0x1F DUP6 ADD PUSH1 0x5 SHR DUP2 ADD PUSH1 0x20 DUP7 LT ISZERO PUSH2 0x74A JUMPI POP DUP1 JUMPDEST PUSH1 0x1F DUP6 ADD PUSH1 0x5 SHR DUP3 ADD SWAP2 POP JUMPDEST DUP2 DUP2 LT ISZERO PUSH2 0x769 JUMPI DUP3 DUP2 SSTORE PUSH1 0x1 ADD PUSH2 0x756 JUMP JUMPDEST POP POP POP JUMPDEST POP POP POP JUMP JUMPDEST DUP2 MLOAD PUSH8 0xFFFFFFFFFFFFFFFF DUP2 GT ISZERO PUSH2 0x78C JUMPI PUSH2 0x78C PUSH2 0x6D1 JUMP JUMPDEST PUSH2 0x7A0 DUP2 PUSH2 0x79A DUP5 SLOAD PUSH2 0x6E7 JUMP JUMPDEST DUP5 PUSH2 0x721 JUMP JUMPDEST PUSH1 0x20 DUP1 PUSH1 0x1F DUP4 GT PUSH1 0x1 DUP2 EQ PUSH2 0x7D5 JUMPI PUSH1 0x0 DUP5 ISZERO PUSH2 0x7BD JUMPI POP DUP6 DUP4 ADD MLOAD JUMPDEST PUSH1 0x0 NOT PUSH1 0x3 DUP7 SWAP1 SHL SHR NOT AND PUSH1 0x1 DUP6 SWAP1 SHL OR DUP6 SSTORE PUSH2 0x769 JUMP JUMPDEST PUSH1 0x0 DUP6 DUP2 MSTORE PUSH1 0x20 DUP2 KECCAK256 PUSH1 0x1F NOT DUP7 AND SWAP2 JUMPDEST DUP3 DUP2 LT ISZERO PUSH2 0x804 JUMPI DUP9 DUP7 ADD MLOAD DUP3 SSTORE SWAP5 DUP5 ADD SWAP5 PUSH1 0x1 SWAP1 SWAP2 ADD SWAP1 DUP5 ADD PUSH2 0x7E5 JUMP JUMPDEST POP DUP6 DUP3 LT ISZERO PUSH2 0x822 JUMPI DUP8 DUP6 ADD MLOAD PUSH1 0x0 NOT PUSH1 0x3 DUP9 SWAP1 SHL PUSH1 0xF8 AND SHR NOT AND DUP2 SSTORE JUMPDEST POP POP POP POP POP PUSH1 0x1 SWAP1 DUP2 SHL ADD SWAP1 SSTORE POP JUMP JUMPDEST PUSH8 0xFFFFFFFFFFFFFFFF DUP5 AND DUP2 MSTORE PUSH1 0x40 PUSH1 0x20 DUP3 ADD MSTORE DUP2 PUSH1 0x40 DUP3 ADD MSTORE DUP2 DUP4 PUSH1 0x60 DUP4 ADD CALLDATACOPY PUSH1 0x0 DUP2 DUP4 ADD PUSH1 0x60 SWAP1 DUP2 ADD SWAP2 SWAP1 SWAP2 MSTORE PUSH1 0x1F SWAP1 SWAP3 ADD PUSH1 0x1F NOT AND ADD ADD SWAP3 SWAP2 POP POP JUMP JUMPDEST PUSH4 0x4E487B71 PUSH1 0xE0 SHL PUSH1 0x0 MSTORE PUSH1 0x11 PUSH1 0x4 MSTORE PUSH1 0x24 PUSH1 0x0 REVERT JUMPDEST DUP2 DUP2 SUB DUP2 DUP2 GT ISZERO PUSH2 0x89B JUMPI PUSH2 0x89B PUSH2 0x872 JUMP JUMPDEST SWAP3 SWAP2 POP POP JUMP JUMPDEST DUP1 DUP3 ADD DUP1 DUP3 GT ISZERO PUSH2 0x89B JUMPI PUSH2 0x89B PUSH2 0x872 JUMP JUMPDEST PUSH4 0x4E487B71 PUSH1 0xE0 SHL PUSH1 0x0 MSTORE PUSH1 0x32 PUSH1 0x4 MSTORE PUSH1 0x24 PUSH1 0x0 REVERT INVALID LOG2 PUSH5 0x6970667358 0x22 SLT KECCAK256 MSIZE CALL SSTORE 0xD0 0xEF SWAP4 LOG4 GASLIMIT 0xC8 0xA9 MLOAD NOT 0xCC 0xD ADD 0xBE 0x1E 0xE6 EXP 0xAD SWAP11 PUSH31 0x70164C450E38C116160564736F6C6343000818003300000000000000000000 "},"methodIdentifiers":{"append(bytes32,bytes)":"039d31e9","count(bytes32)":"7937354c","getRange(bytes32,uint256,uint256)":"b843e964"}}}}}