{"contracts/Pool.sol":{"CeloPayPool":{"abi":[{"inputs":[{"internalType":"address","name":"_asset","type":"address"}],"stateMutability":"nonpayable","type":"constructor"},{"anonymous":false,"inputs":[{"indexed":true,"internalType":"address","name":"owner","type":"address"},{"indexed":true,"internalType":"address","name":"spender","type":"address"},{"indexed":false,"internalType":"uint256","name":"value","type":"uint256"}],"name":"Approval","type":"event"},{"anonymous":false,"inputs":[{"indexed":true,"internalType":"address","name":"user","type":"address"},{"indexed":false,"internalType":"uint256","name":"amount","type":"uint256"},{"indexed":false,"internalType":"uint256","name":"fee","type":"uint256"}],"name":"Borrow","type":"event"},{"anonymous":false,"inputs":[{"indexed":true,"internalType":"address","name":"user","type":"address"},{"indexed":false,"internalType":"uint256","name":"amount","type":"uint256"},{"indexed":false,"internalType":"uint256","name":"shares","type":"uint256"}],"name":"Deposit","type":"event"},{"anonymous":false,"inputs":[{"indexed":true,"internalType":"address","name":"user","type":"address"},{"indexed":false,"internalType":"uint256","name":"amount","type":"uint256"}],"name":"Repay","type":"event"},{"anonymous":false,"inputs":[{"indexed":true,"internalType":"address","name":"from","type":"address"},{"indexed":true,"internalType":"address","name":"to","type":"address"},{"indexed":false,"internalType":"uint256","name":"value","type":"uint256"}],"name":"Transfer","type":"event"},{"anonymous":false,"inputs":[{"indexed":true,"internalType":"address","name":"user","type":"address"},{"indexed":false,"internalType":"uint256","name":"shares","type":"uint256"},{"indexed":false,"internalType":"uint256","name":"amount","type":"uint256"}],"name":"Withdraw","type":"event"},{"inputs":[],"name":"accrualTimestamp","outputs":[{"internalType":"uint256","name":"","type":"uint256"}],"stateMutability":"view","type":"function"},{"inputs":[],"name":"accrueInterest","outputs":[],"stateMutability":"nonpayable","type":"function"},{"inputs":[],"name":"admin","outputs":[{"internalType":"address","name":"","type":"address"}],"stateMutability":"view","type":"function"},{"inputs":[{"internalType":"address","name":"","type":"address"},{"internalType":"address","name":"","type":"address"}],"name":"allowance","outputs":[{"internalType":"uint256","name":"","type":"uint256"}],"stateMutability":"view","type":"function"},{"inputs":[{"internalType":"address","name":"sp","type":"address"},{"internalType":"uint256","name":"a","type":"uint256"}],"name":"approve","outputs":[{"internalType":"bool","name":"","type":"bool"}],"stateMutability":"nonpayable","type":"function"},{"inputs":[],"name":"asset","outputs":[{"internalType":"contract IERC20","name":"","type":"address"}],"stateMutability":"view","type":"function"},{"inputs":[{"internalType":"address","name":"","type":"address"}],"name":"balanceOf","outputs":[{"internalType":"uint256","name":"","type":"uint256"}],"stateMutability":"view","type":"function"},{"inputs":[],"name":"baseRate","outputs":[{"internalType":"uint256","name":"","type":"uint256"}],"stateMutability":"view","type":"function"},{"inputs":[{"internalType":"uint256","name":"amount","type":"uint256"}],"name":"borrow","outputs":[],"stateMutability":"nonpayable","type":"function"},{"inputs":[{"internalType":"address","name":"b","type":"address"}],"name":"borrowBalanceCurrent","outputs":[{"internalType":"uint256","name":"","type":"uint256"}],"stateMutability":"view","type":"function"},{"inputs":[],"name":"borrowIndex","outputs":[{"internalType":"uint256","name":"","type":"uint256"}],"stateMutability":"view","type":"function"},{"inputs":[],"name":"borrowRatePerSec","outputs":[{"internalType":"uint256","name":"","type":"uint256"}],"stateMutability":"view","type":"function"},{"inputs":[{"internalType":"address","name":"","type":"address"}],"name":"borrowerIndex","outputs":[{"internalType":"uint256","name":"","type":"uint256"}],"stateMutability":"view","type":"function"},{"inputs":[],"name":"decimals","outputs":[{"internalType":"uint8","name":"","type":"uint8"}],"stateMutability":"view","type":"function"},{"inputs":[{"internalType":"uint256","name":"amount","type":"uint256"}],"name":"deposit","outputs":[],"stateMutability":"nonpayable","type":"function"},{"inputs":[],"name":"exchangeRate","outputs":[{"internalType":"uint256","name":"","type":"uint256"}],"stateMutability":"view","type":"function"},{"inputs":[],"name":"kink","outputs":[{"internalType":"uint256","name":"","type":"uint256"}],"stateMutability":"view","type":"function"},{"inputs":[{"internalType":"address","name":"borrower","type":"address"}],"name":"markDefault","outputs":[],"stateMutability":"nonpayable","type":"function"},{"inputs":[],"name":"name","outputs":[{"internalType":"string","name":"","type":"string"}],"stateMutability":"view","type":"function"},{"inputs":[],"name":"policy","outputs":[{"internalType":"contract IPolicy","name":"","type":"address"}],"stateMutability":"view","type":"function"},{"inputs":[{"internalType":"address","name":"","type":"address"}],"name":"principal","outputs":[{"internalType":"uint256","name":"","type":"uint256"}],"stateMutability":"view","type":"function"},{"inputs":[{"internalType":"uint256","name":"amount","type":"uint256"}],"name":"repay","outputs":[],"stateMutability":"nonpayable","type":"function"},{"inputs":[],"name":"reserveFactor","outputs":[{"internalType":"uint256","name":"","type":"uint256"}],"stateMutability":"view","type":"function"},{"inputs":[{"internalType":"address","name":"p","type":"address"}],"name":"setPolicy","outputs":[],"stateMutability":"nonpayable","type":"function"},{"inputs":[],"name":"slope1","outputs":[{"internalType":"uint256","name":"","type":"uint256"}],"stateMutability":"view","type":"function"},{"inputs":[],"name":"slope2","outputs":[{"internalType":"uint256","name":"","type":"uint256"}],"stateMutability":"view","type":"function"},{"inputs":[],"name":"supplyRatePerSec","outputs":[{"internalType":"uint256","name":"","type":"uint256"}],"stateMutability":"view","type":"function"},{"inputs":[],"name":"symbol","outputs":[{"internalType":"string","name":"","type":"string"}],"stateMutability":"view","type":"function"},{"inputs":[],"name":"totalBorrows","outputs":[{"internalType":"uint256","name":"","type":"uint256"}],"stateMutability":"view","type":"function"},{"inputs":[],"name":"totalCash","outputs":[{"internalType":"uint256","name":"","type":"uint256"}],"stateMutability":"view","type":"function"},{"inputs":[],"name":"totalReserves","outputs":[{"internalType":"uint256","name":"","type":"uint256"}],"stateMutability":"view","type":"function"},{"inputs":[],"name":"totalSupply","outputs":[{"internalType":"uint256","name":"","type":"uint256"}],"stateMutability":"view","type":"function"},{"inputs":[{"internalType":"address","name":"to","type":"address"},{"internalType":"uint256","name":"a","type":"uint256"}],"name":"transfer","outputs":[{"internalType":"bool","name":"","type":"bool"}],"stateMutability":"nonpayable","type":"function"},{"inputs":[{"internalType":"address","name":"f","type":"address"},{"internalType":"address","name":"t","type":"address"},{"internalType":"uint256","name":"a","type":"uint256"}],"name":"transferFrom","outputs":[{"internalType":"bool","name":"","type":"bool"}],"stateMutability":"nonpayable","type":"function"},{"inputs":[],"name":"utilization","outputs":[{"internalType":"uint256","name":"","type":"uint256"}],"stateMutability":"view","type":"function"},{"inputs":[{"internalType":"uint256","name":"shares","type":"uint256"}],"name":"withdraw","outputs":[],"stateMutability":"nonpayable","type":"function"}],"evm":{"bytecode":{"linkReferences":{},"object":"60a06040526001600555670de0b6b3a7640000600b5567016345785d8a0000600d556000600e556611c37937e08000600f5566470de4df820000601055670b1a2bc2ec5000006011553480156200005557600080fd5b5060405162001a8238038062001a82833981016040819052620000789162000109565b6040518060400160405280600f81526020016e043656c6f50617920506f6f6c204c5608c1b81525060405180604001604052806005815260200164043502d4c560dc1b8152508160009081620000cf9190620001e2565b506001620000de8282620001e2565b5050506001600160a01b0316608052600780546001600160a01b0319163317905542600c55620002ae565b6000602082840312156200011c57600080fd5b81516001600160a01b03811681146200013457600080fd5b9392505050565b634e487b7160e01b600052604160045260246000fd5b600181811c908216806200016657607f821691505b6020821081036200018757634e487b7160e01b600052602260045260246000fd5b50919050565b601f821115620001dd576000816000526020600020601f850160051c81016020861015620001b85750805b601f850160051c820191505b81811015620001d957828155600101620001c4565b5050505b505050565b81516001600160401b03811115620001fe57620001fe6200013b565b62000216816200020f845462000151565b846200018d565b602080601f8311600181146200024e5760008415620002355750858301515b600019600386901b1c1916600185901b178555620001d9565b600085815260208120601f198616915b828110156200027f578886015182559484019460019091019084016200025e565b50858210156200029e5787850151600019600388901b60f8161c191681555b5050505050600190811b01905550565b60805161179c620002e6600039600081816103360152818161083b015281816109b501528181610f5c0152611318015261179c6000f3fe608060405234801561001057600080fd5b506004361061021c5760003560e01c80637d4163d311610125578063b95b92a3116100ad578063d0134cb71161007c578063d0134cb71461045e578063dd62ed3e14610467578063ea21cd9214610492578063f851a4401461049a578063fd2da339146104ad57600080fd5b8063b95b92a314610426578063be81c4d41461042f578063bee12d5314610442578063c5ebeaec1461044b57600080fd5b8063a6afed95116100f4578063a6afed95146103cf578063a9059cbb146103d7578063aa5af0fd146103ea578063b026e6bd146103f3578063b6b55f251461041357600080fd5b80637d4163d3146103a25780638f840ddd146103b557806395d89b41146103be578063a62b75a8146103c657600080fd5b8063313ce567116101a85780634322b714116101775780634322b7141461036057806347bd37181461036957806356150b4114610372578063587a5e501461037a57806370a082311461038257600080fd5b8063313ce56714610304578063371fd8e61461031e57806338d52e0f146103315780633ba0b9a91461035857600080fd5b806318160ddd116101ef57806318160ddd146102aa5780631f68f20a146102b357806323b872dd146102bc5780632ce0f9d6146102cf5780632e1a7d4d146102ef57600080fd5b80630505c8c91461022157806306fdde0314610251578063095ea7b31461026657806317bfdfbc14610289575b600080fd5b600654610234906001600160a01b031681565b6040516001600160a01b0390911681526020015b60405180910390f35b6102596104b6565b604051610248919061151f565b61027961027436600461158a565b610544565b6040519015158152602001610248565b61029c6102973660046115b4565b6105b1565b604051908152602001610248565b61029c60025481565b61029c600e5481565b6102796102ca3660046115cf565b61063e565b61029c6102dd3660046115b4565b60126020526000908152604090205481565b6103026102fd36600461160b565b61073c565b005b61030c601281565b60405160ff9091168152602001610248565b61030261032c36600461160b565b610910565b6102347f000000000000000000000000000000000000000000000000000000000000000081565b61029c610b3f565b61029c600d5481565b61029c60095481565b61029c610ba1565b61029c610c57565b61029c6103903660046115b4565b60036020526000908152604090205481565b6103026103b03660046115b4565b610cc0565b61029c600a5481565b610259610d24565b61029c600f5481565b610302610d31565b6102796103e536600461158a565b610e26565b61029c600b5481565b61029c6104013660046115b4565b60136020526000908152604090205481565b61030261042136600461160b565b610ea4565b61029c600c5481565b61030261043d3660046115b4565b611047565b61029c60085481565b61030261045936600461160b565b611135565b61029c60105481565b61029c610475366004611624565b600460209081526000928352604080842090915290825290205481565b61029c6113ec565b600754610234906001600160a01b031681565b61029c60115481565b600080546104c390611657565b80601f01602080910402602001604051908101604052809291908181526020018280546104ef90611657565b801561053c5780601f106105115761010080835404028352916020019161053c565b820191906000526020600020905b81548152906001019060200180831161051f57829003601f168201915b505050505081565b3360008181526004602090815260408083206001600160a01b038716808552925280832085905551919290917f8c5be1e5ebec7d5bd14f71427d1e84f3dd0314c0f7b2291e5b200ac8c7c3b9259061059f9086815260200190565b60405180910390a35060015b92915050565b6001600160a01b03811660009081526012602052604081205481036105d857506000919050565b6001600160a01b03821660009081526013602052604090205480156105fd5780610607565b670de0b6b3a76400005b600b546001600160a01b03851660009081526012602052604090205461062d91906116a7565b61063791906116be565b9392505050565b6001600160a01b0383166000908152600460209081526040808320338452909152812054600019811461069a5761067583826116e0565b6001600160a01b03861660009081526004602090815260408083203384529091529020555b6001600160a01b038516600090815260036020526040812080548592906106c29084906116e0565b90915550506001600160a01b038416600090815260036020526040812080548592906106ef9084906116f3565b92505081905550836001600160a01b0316856001600160a01b03166000805160206117478339815191528560405161072991815260200190565b60405180910390a3506001949350505050565b60055460011461074b57600080fd5b6002600555610758610d31565b600081116107985760405162461bcd60e51b815260206004820152600860248201526707368617265733d360c41b60448201526064015b60405180910390fd5b6000670de0b6b3a76400006107ab610b3f565b6107b590846116a7565b6107bf91906116be565b90506008548111156107fe5760405162461bcd60e51b81526020600482015260086024820152671a5b1b1a5c5d5a5960c21b604482015260640161078f565b6108083383611435565b806008600082825461081a91906116e0565b909155505060405163a9059cbb60e01b8152336004820152602481018290527f00000000000000000000000000000000000000000000000000000000000000006001600160a01b03169063a9059cbb906044016020604051808303816000875af115801561088c573d6000803e3d6000fd5b505050506040513d601f19601f820116820180604052508101906108b09190611706565b6108cc5760405162461bcd60e51b815260040161078f90611728565b604080518381526020810183905233917ff279e6a1f5e320cca91135676d9cb6e44ca8a08c0b88342bcdb1144f6511b568910160405180910390a250506001600555565b60055460011461091f57600080fd5b600260055561092c610d31565b336000908152601260205260409020546109725760405162461bcd60e51b81526020600482015260076024820152661b9bc81919589d60ca1b604482015260640161078f565b600061097d336105b1565b9050600081831161098e5782610990565b815b6040516323b872dd60e01b8152336004820152306024820152604481018290529091507f00000000000000000000000000000000000000000000000000000000000000006001600160a01b0316906323b872dd906064016020604051808303816000875af1158015610a06573d6000803e3d6000fd5b505050506040513d601f19601f82011682018060405250810190610a2a9190611706565b610a465760405162461bcd60e51b815260040161078f90611728565b8060086000828254610a5891906116f3565b9091555050336000908152601260205260409020548110610ac157336000908152601260205260408120546009805491929091610a969084906116e0565b9091555050336000908152601260209081526040808320839055600b54601390925290912055610aff565b3360009081526012602052604081208054839290610ae09084906116e0565b925050819055508060096000828254610af991906116e0565b90915550505b60405181815233907f5c16de4f8b59bd9caf0f49a545f25819a895ed223294290b408242e72a594231906020015b60405180910390a25050600160055550565b60008060025490506000600a54600954600854610b5c91906116f3565b610b6691906116e0565b90508115610b905781610b8182670de0b6b3a76400006116a7565b610b8b91906116be565b610b9a565b670de0b6b3a76400005b9250505090565b600080610bac6113ec565b90506011548111610beb57670de0b6b3a764000081600f54610bce91906116a7565b610bd891906116be565b600e54610be591906116f3565b91505090565b6000670de0b6b3a7640000601154600f54610c0691906116a7565b610c1091906116be565b600e54610c1d91906116f3565b9050670de0b6b3a764000060115483610c3691906116e0565b601054610c4391906116a7565b610c4d91906116be565b610b9a90826116f3565b600080610c62610ba1565b90506000610c6e6113ec565b9050670de0b6b3a7640000600d54670de0b6b3a7640000610c8f91906116e0565b670de0b6b3a7640000610ca284866116a7565b610cac91906116be565b610cb691906116a7565b610b9a91906116be565b6007546001600160a01b03163314610d025760405162461bcd60e51b815260206004820152600560248201526420a226a4a760d91b604482015260640161078f565b600680546001600160a01b0319166001600160a01b0392909216919091179055565b600180546104c390611657565b6000600c5442610d4191906116e0565b905080600003610d4e5750565b6000610d58610ba1565b90506000670de0b6b3a76400008383600954610d7491906116a7565b610d7e91906116a7565b610d8891906116be565b90508060096000828254610d9c91906116f3565b9091555050600d54600090670de0b6b3a764000090610dbb90846116a7565b610dc591906116be565b905080600a6000828254610dd991906116f3565b92505081905550670de0b6b3a76400008484600b54610df891906116a7565b610e0291906116a7565b610e0c91906116be565b600b54610e1991906116f3565b600b55505042600c555050565b33600090815260036020526040812080548391908390610e479084906116e0565b90915550506001600160a01b03831660009081526003602052604081208054849290610e749084906116f3565b90915550506040518281526001600160a01b0384169033906000805160206117478339815191529060200161059f565b600554600114610eb357600080fd5b6002600555610ec0610d31565b60008111610efb5760405162461bcd60e51b81526020600482015260086024820152670616d6f756e743d360c41b604482015260640161078f565b6000610f05610b3f565b90506000600254600014610f355781610f2684670de0b6b3a76400006116a7565b610f3091906116be565b610f37565b825b6040516323b872dd60e01b8152336004820152306024820152604481018590529091507f00000000000000000000000000000000000000000000000000000000000000006001600160a01b0316906323b872dd906064016020604051808303816000875af1158015610fad573d6000803e3d6000fd5b505050506040513d601f19601f82011682018060405250810190610fd19190611706565b610fed5760405162461bcd60e51b815260040161078f90611728565b8260086000828254610fff91906116f3565b9091555061100f905033826114af565b604080518481526020810183905233917f90890809c654f11d6e72a28fa60149770a0d11ec6c92319d6ceb2bb0a4ea1a159101610b2d565b6007546001600160a01b031633146110895760405162461bcd60e51b815260206004820152600560248201526420a226a4a760d91b604482015260640161078f565b611091610d31565b600061109c826105b1565b9050806000036110aa575050565b600a548181106110c6576110be82826116e0565b600a55611108565b60006110d282846116e0565b6000600a556009549091508111156110ee576000600955611106565b806009600082825461110091906116e0565b90915550505b505b50506001600160a01b03166000908152601260209081526040808320839055600b54601390925290912055565b60055460011461114457600080fd5b6002600555611151610d31565b6006546001600160a01b03166111925760405162461bcd60e51b8152602060048201526006602482015265706f6c69637960d01b604482015260640161078f565b6006546040516333e3231160e21b8152336004820152602481018390526001600160a01b039091169063cf8c8c4490604401602060405180830381865afa1580156111e1573d6000803e3d6000fd5b505050506040513d601f19601f820116820180604052508101906112059190611706565b61123a5760405162461bcd60e51b81526020600482015260066024820152651c995a9958dd60d21b604482015260640161078f565b60008111801561124c57506008548111155b61127e5760405162461bcd60e51b8152602060048201526003602482015262185b5d60ea1b604482015260640161078f565b806008600082825461129091906116e0565b9250508190555080600960008282546112a991906116f3565b90915550503360009081526013602052604081205490036112d857600b54336000908152601360205260409020555b33600090815260126020526040812080548392906112f79084906116f3565b909155505060405163a9059cbb60e01b8152336004820152602481018290527f00000000000000000000000000000000000000000000000000000000000000006001600160a01b03169063a9059cbb906044016020604051808303816000875af1158015611369573d6000803e3d6000fd5b505050506040513d601f19601f8201168201806040525081019061138d9190611706565b6113a95760405162461bcd60e51b815260040161078f90611728565b604080518281526000602082015233917fe1979fe4c35e0cef342fef5668e2c8e7a7e9f5d5d1ca8fee0ac6c427fa4153af910160405180910390a2506001600555565b6000806009546008546113ff91906116f3565b9050801561142d5780600954670de0b6b3a764000061141e91906116a7565b61142891906116be565b610be5565b600091505090565b6001600160a01b0382166000908152600360205260408120805483929061145d9084906116e0565b92505081905550806002600082825461147691906116e0565b90915550506040518181526000906001600160a01b03841690600080516020611747833981519152906020015b60405180910390a35050565b80600260008282546114c191906116f3565b90915550506001600160a01b038216600090815260036020526040812080548392906114ee9084906116f3565b90915550506040518181526001600160a01b03831690600090600080516020611747833981519152906020016114a3565b60006020808352835180602085015260005b8181101561154d57858101830151858201604001528201611531565b506000604082860101526040601f19601f8301168501019250505092915050565b80356001600160a01b038116811461158557600080fd5b919050565b6000806040838503121561159d57600080fd5b6115a68361156e565b946020939093013593505050565b6000602082840312156115c657600080fd5b6106378261156e565b6000806000606084860312156115e457600080fd5b6115ed8461156e565b92506115fb6020850161156e565b9150604084013590509250925092565b60006020828403121561161d57600080fd5b5035919050565b6000806040838503121561163757600080fd5b6116408361156e565b915061164e6020840161156e565b90509250929050565b600181811c9082168061166b57607f821691505b60208210810361168b57634e487b7160e01b600052602260045260246000fd5b50919050565b634e487b7160e01b600052601160045260246000fd5b80820281158282048414176105ab576105ab611691565b6000826116db57634e487b7160e01b600052601260045260246000fd5b500490565b818103818111156105ab576105ab611691565b808201808211156105ab576105ab611691565b60006020828403121561171857600080fd5b8151801515811461063757600080fd5b6020808252600490820152633c3332b960e11b60408201526060019056feddf252ad1be2c89b69c2b068fc378daa952ba7f163c4a11628f55a4df523b3efa2646970667358221220e8cf35693107f772098ef2bd2f30c22a68df59a4f969530e80b46d86fb42b8da64736f6c63430008180033","opcodes":"PUSH1 0xA0 PUSH1 0x40 MSTORE PUSH1 0x1 PUSH1 0x5 SSTORE PUSH8 0xDE0B6B3A7640000 PUSH1 0xB SSTORE PUSH8 0x16345785D8A0000 PUSH1 0xD SSTORE PUSH1 0x0 PUSH1 0xE SSTORE PUSH7 0x11C37937E08000 PUSH1 0xF SSTORE PUSH7 0x470DE4DF820000 PUSH1 0x10 SSTORE PUSH8 0xB1A2BC2EC500000 PUSH1 0x11 SSTORE CALLVALUE DUP1 ISZERO PUSH3 0x55 JUMPI PUSH1 0x0 DUP1 REVERT JUMPDEST POP PUSH1 0x40 MLOAD PUSH3 0x1A82 CODESIZE SUB DUP1 PUSH3 0x1A82 DUP4 CODECOPY DUP2 ADD PUSH1 0x40 DUP2 SWAP1 MSTORE PUSH3 0x78 SWAP2 PUSH3 0x109 JUMP JUMPDEST PUSH1 0x40 MLOAD DUP1 PUSH1 0x40 ADD PUSH1 0x40 MSTORE DUP1 PUSH1 0xF DUP2 MSTORE PUSH1 0x20 ADD PUSH15 0x43656C6F50617920506F6F6C204C5 PUSH1 0x8C SHL DUP2 MSTORE POP PUSH1 0x40 MLOAD DUP1 PUSH1 0x40 ADD PUSH1 0x40 MSTORE DUP1 PUSH1 0x5 DUP2 MSTORE PUSH1 0x20 ADD PUSH5 0x43502D4C5 PUSH1 0xDC SHL DUP2 MSTORE POP DUP2 PUSH1 0x0 SWAP1 DUP2 PUSH3 0xCF SWAP2 SWAP1 PUSH3 0x1E2 JUMP JUMPDEST POP PUSH1 0x1 PUSH3 0xDE DUP3 DUP3 PUSH3 0x1E2 JUMP JUMPDEST POP POP POP PUSH1 0x1 PUSH1 0x1 PUSH1 0xA0 SHL SUB AND PUSH1 0x80 MSTORE PUSH1 0x7 DUP1 SLOAD PUSH1 0x1 PUSH1 0x1 PUSH1 0xA0 SHL SUB NOT AND CALLER OR SWAP1 SSTORE TIMESTAMP PUSH1 0xC SSTORE PUSH3 0x2AE JUMP JUMPDEST PUSH1 0x0 PUSH1 0x20 DUP3 DUP5 SUB SLT ISZERO PUSH3 0x11C JUMPI PUSH1 0x0 DUP1 REVERT JUMPDEST DUP2 MLOAD PUSH1 0x1 PUSH1 0x1 PUSH1 0xA0 SHL SUB DUP2 AND DUP2 EQ PUSH3 0x134 JUMPI PUSH1 0x0 DUP1 REVERT JUMPDEST SWAP4 SWAP3 POP POP POP JUMP JUMPDEST PUSH4 0x4E487B71 PUSH1 0xE0 SHL PUSH1 0x0 MSTORE PUSH1 0x41 PUSH1 0x4 MSTORE PUSH1 0x24 PUSH1 0x0 REVERT JUMPDEST PUSH1 0x1 DUP2 DUP2 SHR SWAP1 DUP3 AND DUP1 PUSH3 0x166 JUMPI PUSH1 0x7F DUP3 AND SWAP2 POP JUMPDEST PUSH1 0x20 DUP3 LT DUP2 SUB PUSH3 0x187 JUMPI PUSH4 0x4E487B71 PUSH1 0xE0 SHL PUSH1 0x0 MSTORE PUSH1 0x22 PUSH1 0x4 MSTORE PUSH1 0x24 PUSH1 0x0 REVERT JUMPDEST POP SWAP2 SWAP1 POP JUMP JUMPDEST PUSH1 0x1F DUP3 GT ISZERO PUSH3 0x1DD JUMPI PUSH1 0x0 DUP2 PUSH1 0x0 MSTORE PUSH1 0x20 PUSH1 0x0 KECCAK256 PUSH1 0x1F DUP6 ADD PUSH1 0x5 SHR DUP2 ADD PUSH1 0x20 DUP7 LT ISZERO PUSH3 0x1B8 JUMPI POP DUP1 JUMPDEST PUSH1 0x1F DUP6 ADD PUSH1 0x5 SHR DUP3 ADD SWAP2 POP JUMPDEST DUP2 DUP2 LT ISZERO PUSH3 0x1D9 JUMPI DUP3 DUP2 SSTORE PUSH1 0x1 ADD PUSH3 0x1C4 JUMP JUMPDEST POP POP POP JUMPDEST POP POP POP JUMP JUMPDEST DUP2 MLOAD PUSH1 0x1 PUSH1 0x1 PUSH1 0x40 SHL SUB DUP2 GT ISZERO PUSH3 0x1FE JUMPI PUSH3 0x1FE PUSH3 0x13B JUMP JUMPDEST PUSH3 0x216 DUP2 PUSH3 0x20F DUP5 SLOAD PUSH3 0x151 JUMP JUMPDEST DUP5 PUSH3 0x18D JUMP JUMPDEST PUSH1 0x20 DUP1 PUSH1 0x1F DUP4 GT PUSH1 0x1 DUP2 EQ PUSH3 0x24E JUMPI PUSH1 0x0 DUP5 ISZERO PUSH3 0x235 JUMPI POP DUP6 DUP4 ADD MLOAD JUMPDEST PUSH1 0x0 NOT PUSH1 0x3 DUP7 SWAP1 SHL SHR NOT AND PUSH1 0x1 DUP6 SWAP1 SHL OR DUP6 SSTORE PUSH3 0x1D9 JUMP JUMPDEST PUSH1 0x0 DUP6 DUP2 MSTORE PUSH1 0x20 DUP2 KECCAK256 PUSH1 0x1F NOT DUP7 AND SWAP2 JUMPDEST DUP3 DUP2 LT ISZERO PUSH3 0x27F JUMPI DUP9 DUP7 ADD MLOAD DUP3 SSTORE SWAP5 DUP5 ADD SWAP5 PUSH1 0x1 SWAP1 SWAP2 ADD SWAP1 DUP5 ADD PUSH3 0x25E JUMP JUMPDEST POP DUP6 DUP3 LT ISZERO PUSH3 0x29E JUMPI DUP8 DUP6 ADD MLOAD PUSH1 0x0 NOT PUSH1 0x3 DUP9 SWAP1 SHL PUSH1 0xF8 AND SHR NOT AND DUP2 SSTORE JUMPDEST POP POP POP POP POP PUSH1 0x1 SWAP1 DUP2 SHL ADD SWAP1 SSTORE POP JUMP JUMPDEST PUSH1 0x80 MLOAD PUSH2 0x179C PUSH3 0x2E6 PUSH1 0x0 CODECOPY PUSH1 0x0 DUP2 DUP2 PUSH2 0x336 ADD MSTORE DUP2 DUP2 PUSH2 0x83B ADD MSTORE DUP2 DUP2 PUSH2 0x9B5 ADD MSTORE DUP2 DUP2 PUSH2 0xF5C ADD MSTORE PUSH2 0x1318 ADD MSTORE PUSH2 0x179C PUSH1 0x0 RETURN INVALID PUSH1 0x80 PUSH1 0x40 MSTORE CALLVALUE DUP1 ISZERO PUSH2 0x10 JUMPI PUSH1 0x0 DUP1 REVERT JUMPDEST POP PUSH1 0x4 CALLDATASIZE LT PUSH2 0x21C JUMPI PUSH1 0x0 CALLDATALOAD PUSH1 0xE0 SHR DUP1 PUSH4 0x7D4163D3 GT PUSH2 0x125 JUMPI DUP1 PUSH4 0xB95B92A3 GT PUSH2 0xAD JUMPI DUP1 PUSH4 0xD0134CB7 GT PUSH2 0x7C JUMPI DUP1 PUSH4 0xD0134CB7 EQ PUSH2 0x45E JUMPI DUP1 PUSH4 0xDD62ED3E EQ PUSH2 0x467 JUMPI DUP1 PUSH4 0xEA21CD92 EQ PUSH2 0x492 JUMPI DUP1 PUSH4 0xF851A440 EQ PUSH2 0x49A JUMPI DUP1 PUSH4 0xFD2DA339 EQ PUSH2 0x4AD JUMPI PUSH1 0x0 DUP1 REVERT JUMPDEST DUP1 PUSH4 0xB95B92A3 EQ PUSH2 0x426 JUMPI DUP1 PUSH4 0xBE81C4D4 EQ PUSH2 0x42F JUMPI DUP1 PUSH4 0xBEE12D53 EQ PUSH2 0x442 JUMPI DUP1 PUSH4 0xC5EBEAEC EQ PUSH2 0x44B JUMPI PUSH1 0x0 DUP1 REVERT JUMPDEST DUP1 PUSH4 0xA6AFED95 GT PUSH2 0xF4 JUMPI DUP1 PUSH4 0xA6AFED95 EQ PUSH2 0x3CF JUMPI DUP1 PUSH4 0xA9059CBB EQ PUSH2 0x3D7 JUMPI DUP1 PUSH4 0xAA5AF0FD EQ PUSH2 0x3EA JUMPI DUP1 PUSH4 0xB026E6BD EQ PUSH2 0x3F3 JUMPI DUP1 PUSH4 0xB6B55F25 EQ PUSH2 0x413 JUMPI PUSH1 0x0 DUP1 REVERT JUMPDEST DUP1 PUSH4 0x7D4163D3 EQ PUSH2 0x3A2 JUMPI DUP1 PUSH4 0x8F840DDD EQ PUSH2 0x3B5 JUMPI DUP1 PUSH4 0x95D89B41 EQ PUSH2 0x3BE JUMPI DUP1 PUSH4 0xA62B75A8 EQ PUSH2 0x3C6 JUMPI PUSH1 0x0 DUP1 REVERT JUMPDEST DUP1 PUSH4 0x313CE567 GT PUSH2 0x1A8 JUMPI DUP1 PUSH4 0x4322B714 GT PUSH2 0x177 JUMPI DUP1 PUSH4 0x4322B714 EQ PUSH2 0x360 JUMPI DUP1 PUSH4 0x47BD3718 EQ PUSH2 0x369 JUMPI DUP1 PUSH4 0x56150B41 EQ PUSH2 0x372 JUMPI DUP1 PUSH4 0x587A5E50 EQ PUSH2 0x37A JUMPI DUP1 PUSH4 0x70A08231 EQ PUSH2 0x382 JUMPI PUSH1 0x0 DUP1 REVERT JUMPDEST DUP1 PUSH4 0x313CE567 EQ PUSH2 0x304 JUMPI DUP1 PUSH4 0x371FD8E6 EQ PUSH2 0x31E JUMPI DUP1 PUSH4 0x38D52E0F EQ PUSH2 0x331 JUMPI DUP1 PUSH4 0x3BA0B9A9 EQ PUSH2 0x358 JUMPI PUSH1 0x0 DUP1 REVERT JUMPDEST DUP1 PUSH4 0x18160DDD GT PUSH2 0x1EF JUMPI DUP1 PUSH4 0x18160DDD EQ PUSH2 0x2AA JUMPI DUP1 PUSH4 0x1F68F20A EQ PUSH2 0x2B3 JUMPI DUP1 PUSH4 0x23B872DD EQ PUSH2 0x2BC JUMPI DUP1 PUSH4 0x2CE0F9D6 EQ PUSH2 0x2CF JUMPI DUP1 PUSH4 0x2E1A7D4D EQ PUSH2 0x2EF JUMPI PUSH1 0x0 DUP1 REVERT JUMPDEST DUP1 PUSH4 0x505C8C9 EQ PUSH2 0x221 JUMPI DUP1 PUSH4 0x6FDDE03 EQ PUSH2 0x251 JUMPI DUP1 PUSH4 0x95EA7B3 EQ PUSH2 0x266 JUMPI DUP1 PUSH4 0x17BFDFBC EQ PUSH2 0x289 JUMPI JUMPDEST PUSH1 0x0 DUP1 REVERT JUMPDEST PUSH1 0x6 SLOAD PUSH2 0x234 SWAP1 PUSH1 0x1 PUSH1 0x1 PUSH1 0xA0 SHL SUB AND DUP2 JUMP JUMPDEST PUSH1 0x40 MLOAD PUSH1 0x1 PUSH1 0x1 PUSH1 0xA0 SHL SUB SWAP1 SWAP2 AND DUP2 MSTORE PUSH1 0x20 ADD JUMPDEST PUSH1 0x40 MLOAD DUP1 SWAP2 SUB SWAP1 RETURN JUMPDEST PUSH2 0x259 PUSH2 0x4B6 JUMP JUMPDEST PUSH1 0x40 MLOAD PUSH2 0x248 SWAP2 SWAP1 PUSH2 0x151F JUMP JUMPDEST PUSH2 0x279 PUSH2 0x274 CALLDATASIZE PUSH1 0x4 PUSH2 0x158A JUMP JUMPDEST PUSH2 0x544 JUMP JUMPDEST PUSH1 0x40 MLOAD SWAP1 ISZERO ISZERO DUP2 MSTORE PUSH1 0x20 ADD PUSH2 0x248 JUMP JUMPDEST PUSH2 0x29C PUSH2 0x297 CALLDATASIZE PUSH1 0x4 PUSH2 0x15B4 JUMP JUMPDEST PUSH2 0x5B1 JUMP JUMPDEST PUSH1 0x40 MLOAD SWAP1 DUP2 MSTORE PUSH1 0x20 ADD PUSH2 0x248 JUMP JUMPDEST PUSH2 0x29C PUSH1 0x2 SLOAD DUP2 JUMP JUMPDEST PUSH2 0x29C PUSH1 0xE SLOAD DUP2 JUMP JUMPDEST PUSH2 0x279 PUSH2 0x2CA CALLDATASIZE PUSH1 0x4 PUSH2 0x15CF JUMP JUMPDEST PUSH2 0x63E JUMP JUMPDEST PUSH2 0x29C PUSH2 0x2DD CALLDATASIZE PUSH1 0x4 PUSH2 0x15B4 JUMP JUMPDEST PUSH1 0x12 PUSH1 0x20 MSTORE PUSH1 0x0 SWAP1 DUP2 MSTORE PUSH1 0x40 SWAP1 KECCAK256 SLOAD DUP2 JUMP JUMPDEST PUSH2 0x302 PUSH2 0x2FD CALLDATASIZE PUSH1 0x4 PUSH2 0x160B JUMP JUMPDEST PUSH2 0x73C JUMP JUMPDEST STOP JUMPDEST PUSH2 0x30C PUSH1 0x12 DUP2 JUMP JUMPDEST PUSH1 0x40 MLOAD PUSH1 0xFF SWAP1 SWAP2 AND DUP2 MSTORE PUSH1 0x20 ADD PUSH2 0x248 JUMP JUMPDEST PUSH2 0x302 PUSH2 0x32C CALLDATASIZE PUSH1 0x4 PUSH2 0x160B JUMP JUMPDEST PUSH2 0x910 JUMP JUMPDEST PUSH2 0x234 PUSH32 0x0 DUP2 JUMP JUMPDEST PUSH2 0x29C PUSH2 0xB3F JUMP JUMPDEST PUSH2 0x29C PUSH1 0xD SLOAD DUP2 JUMP JUMPDEST PUSH2 0x29C PUSH1 0x9 SLOAD DUP2 JUMP JUMPDEST PUSH2 0x29C PUSH2 0xBA1 JUMP JUMPDEST PUSH2 0x29C PUSH2 0xC57 JUMP JUMPDEST PUSH2 0x29C PUSH2 0x390 CALLDATASIZE PUSH1 0x4 PUSH2 0x15B4 JUMP JUMPDEST PUSH1 0x3 PUSH1 0x20 MSTORE PUSH1 0x0 SWAP1 DUP2 MSTORE PUSH1 0x40 SWAP1 KECCAK256 SLOAD DUP2 JUMP JUMPDEST PUSH2 0x302 PUSH2 0x3B0 CALLDATASIZE PUSH1 0x4 PUSH2 0x15B4 JUMP JUMPDEST PUSH2 0xCC0 JUMP JUMPDEST PUSH2 0x29C PUSH1 0xA SLOAD DUP2 JUMP JUMPDEST PUSH2 0x259 PUSH2 0xD24 JUMP JUMPDEST PUSH2 0x29C PUSH1 0xF SLOAD DUP2 JUMP JUMPDEST PUSH2 0x302 PUSH2 0xD31 JUMP JUMPDEST PUSH2 0x279 PUSH2 0x3E5 CALLDATASIZE PUSH1 0x4 PUSH2 0x158A JUMP JUMPDEST PUSH2 0xE26 JUMP JUMPDEST PUSH2 0x29C PUSH1 0xB SLOAD DUP2 JUMP JUMPDEST PUSH2 0x29C PUSH2 0x401 CALLDATASIZE PUSH1 0x4 PUSH2 0x15B4 JUMP JUMPDEST PUSH1 0x13 PUSH1 0x20 MSTORE PUSH1 0x0 SWAP1 DUP2 MSTORE PUSH1 0x40 SWAP1 KECCAK256 SLOAD DUP2 JUMP JUMPDEST PUSH2 0x302 PUSH2 0x421 CALLDATASIZE PUSH1 0x4 PUSH2 0x160B JUMP JUMPDEST PUSH2 0xEA4 JUMP JUMPDEST PUSH2 0x29C PUSH1 0xC SLOAD DUP2 JUMP JUMPDEST PUSH2 0x302 PUSH2 0x43D CALLDATASIZE PUSH1 0x4 PUSH2 0x15B4 JUMP JUMPDEST PUSH2 0x1047 JUMP JUMPDEST PUSH2 0x29C PUSH1 0x8 SLOAD DUP2 JUMP JUMPDEST PUSH2 0x302 PUSH2 0x459 CALLDATASIZE PUSH1 0x4 PUSH2 0x160B JUMP JUMPDEST PUSH2 0x1135 JUMP JUMPDEST PUSH2 0x29C PUSH1 0x10 SLOAD DUP2 JUMP JUMPDEST PUSH2 0x29C PUSH2 0x475 CALLDATASIZE PUSH1 0x4 PUSH2 0x1624 JUMP JUMPDEST PUSH1 0x4 PUSH1 0x20 SWAP1 DUP2 MSTORE PUSH1 0x0 SWAP3 DUP4 MSTORE PUSH1 0x40 DUP1 DUP5 KECCAK256 SWAP1 SWAP2 MSTORE SWAP1 DUP3 MSTORE SWAP1 KECCAK256 SLOAD DUP2 JUMP JUMPDEST PUSH2 0x29C PUSH2 0x13EC JUMP JUMPDEST PUSH1 0x7 SLOAD PUSH2 0x234 SWAP1 PUSH1 0x1 PUSH1 0x1 PUSH1 0xA0 SHL SUB AND DUP2 JUMP JUMPDEST PUSH2 0x29C PUSH1 0x11 SLOAD DUP2 JUMP JUMPDEST PUSH1 0x0 DUP1 SLOAD PUSH2 0x4C3 SWAP1 PUSH2 0x1657 JUMP JUMPDEST DUP1 PUSH1 0x1F ADD PUSH1 0x20 DUP1 SWAP2 DIV MUL PUSH1 0x20 ADD PUSH1 0x40 MLOAD SWAP1 DUP2 ADD PUSH1 0x40 MSTORE DUP1 SWAP3 SWAP2 SWAP1 DUP2 DUP2 MSTORE PUSH1 0x20 ADD DUP3 DUP1 SLOAD PUSH2 0x4EF SWAP1 PUSH2 0x1657 JUMP JUMPDEST DUP1 ISZERO PUSH2 0x53C JUMPI DUP1 PUSH1 0x1F LT PUSH2 0x511 JUMPI PUSH2 0x100 DUP1 DUP4 SLOAD DIV MUL DUP4 MSTORE SWAP2 PUSH1 0x20 ADD SWAP2 PUSH2 0x53C JUMP JUMPDEST DUP3 ADD SWAP2 SWAP1 PUSH1 0x0 MSTORE PUSH1 0x20 PUSH1 0x0 KECCAK256 SWAP1 JUMPDEST DUP2 SLOAD DUP2 MSTORE SWAP1 PUSH1 0x1 ADD SWAP1 PUSH1 0x20 ADD DUP1 DUP4 GT PUSH2 0x51F JUMPI DUP3 SWAP1 SUB PUSH1 0x1F AND DUP3 ADD SWAP2 JUMPDEST POP POP POP POP POP DUP2 JUMP JUMPDEST CALLER PUSH1 0x0 DUP2 DUP2 MSTORE PUSH1 0x4 PUSH1 0x20 SWAP1 DUP2 MSTORE PUSH1 0x40 DUP1 DUP4 KECCAK256 PUSH1 0x1 PUSH1 0x1 PUSH1 0xA0 SHL SUB DUP8 AND DUP1 DUP6 MSTORE SWAP3 MSTORE DUP1 DUP4 KECCAK256 DUP6 SWAP1 SSTORE MLOAD SWAP2 SWAP3 SWAP1 SWAP2 PUSH32 0x8C5BE1E5EBEC7D5BD14F71427D1E84F3DD0314C0F7B2291E5B200AC8C7C3B925 SWAP1 PUSH2 0x59F SWAP1 DUP7 DUP2 MSTORE PUSH1 0x20 ADD SWAP1 JUMP JUMPDEST PUSH1 0x40 MLOAD DUP1 SWAP2 SUB SWAP1 LOG3 POP PUSH1 0x1 JUMPDEST SWAP3 SWAP2 POP POP JUMP JUMPDEST PUSH1 0x1 PUSH1 0x1 PUSH1 0xA0 SHL SUB DUP2 AND PUSH1 0x0 SWAP1 DUP2 MSTORE PUSH1 0x12 PUSH1 0x20 MSTORE PUSH1 0x40 DUP2 KECCAK256 SLOAD DUP2 SUB PUSH2 0x5D8 JUMPI POP PUSH1 0x0 SWAP2 SWAP1 POP JUMP JUMPDEST PUSH1 0x1 PUSH1 0x1 PUSH1 0xA0 SHL SUB DUP3 AND PUSH1 0x0 SWAP1 DUP2 MSTORE PUSH1 0x13 PUSH1 0x20 MSTORE PUSH1 0x40 SWAP1 KECCAK256 SLOAD DUP1 ISZERO PUSH2 0x5FD JUMPI DUP1 PUSH2 0x607 JUMP JUMPDEST PUSH8 0xDE0B6B3A7640000 JUMPDEST PUSH1 0xB SLOAD PUSH1 0x1 PUSH1 0x1 PUSH1 0xA0 SHL SUB DUP6 AND PUSH1 0x0 SWAP1 DUP2 MSTORE PUSH1 0x12 PUSH1 0x20 MSTORE PUSH1 0x40 SWAP1 KECCAK256 SLOAD PUSH2 0x62D SWAP2 SWAP1 PUSH2 0x16A7 JUMP JUMPDEST PUSH2 0x637 SWAP2 SWAP1 PUSH2 0x16BE JUMP JUMPDEST SWAP4 SWAP3 POP POP POP JUMP JUMPDEST PUSH1 0x1 PUSH1 0x1 PUSH1 0xA0 SHL SUB DUP4 AND PUSH1 0x0 SWAP1 DUP2 MSTORE PUSH1 0x4 PUSH1 0x20 SWAP1 DUP2 MSTORE PUSH1 0x40 DUP1 DUP4 KECCAK256 CALLER DUP5 MSTORE SWAP1 SWAP2 MSTORE DUP2 KECCAK256 SLOAD PUSH1 0x0 NOT DUP2 EQ PUSH2 0x69A JUMPI PUSH2 0x675 DUP4 DUP3 PUSH2 0x16E0 JUMP JUMPDEST PUSH1 0x1 PUSH1 0x1 PUSH1 0xA0 SHL SUB DUP7 AND PUSH1 0x0 SWAP1 DUP2 MSTORE PUSH1 0x4 PUSH1 0x20 SWAP1 DUP2 MSTORE PUSH1 0x40 DUP1 DUP4 KECCAK256 CALLER DUP5 MSTORE SWAP1 SWAP2 MSTORE SWAP1 KECCAK256 SSTORE JUMPDEST PUSH1 0x1 PUSH1 0x1 PUSH1 0xA0 SHL SUB DUP6 AND PUSH1 0x0 SWAP1 DUP2 MSTORE PUSH1 0x3 PUSH1 0x20 MSTORE PUSH1 0x40 DUP2 KECCAK256 DUP1 SLOAD DUP6 SWAP3 SWAP1 PUSH2 0x6C2 SWAP1 DUP5 SWAP1 PUSH2 0x16E0 JUMP JUMPDEST SWAP1 SWAP2 SSTORE POP POP PUSH1 0x1 PUSH1 0x1 PUSH1 0xA0 SHL SUB DUP5 AND PUSH1 0x0 SWAP1 DUP2 MSTORE PUSH1 0x3 PUSH1 0x20 MSTORE PUSH1 0x40 DUP2 KECCAK256 DUP1 SLOAD DUP6 SWAP3 SWAP1 PUSH2 0x6EF SWAP1 DUP5 SWAP1 PUSH2 0x16F3 JUMP JUMPDEST SWAP3 POP POP DUP2 SWAP1 SSTORE POP DUP4 PUSH1 0x1 PUSH1 0x1 PUSH1 0xA0 SHL SUB AND DUP6 PUSH1 0x1 PUSH1 0x1 PUSH1 0xA0 SHL SUB AND PUSH1 0x0 DUP1 MLOAD PUSH1 0x20 PUSH2 0x1747 DUP4 CODECOPY DUP2 MLOAD SWAP2 MSTORE DUP6 PUSH1 0x40 MLOAD PUSH2 0x729 SWAP2 DUP2 MSTORE PUSH1 0x20 ADD SWAP1 JUMP JUMPDEST PUSH1 0x40 MLOAD DUP1 SWAP2 SUB SWAP1 LOG3 POP PUSH1 0x1 SWAP5 SWAP4 POP POP POP POP JUMP JUMPDEST PUSH1 0x5 SLOAD PUSH1 0x1 EQ PUSH2 0x74B JUMPI PUSH1 0x0 DUP1 REVERT JUMPDEST PUSH1 0x2 PUSH1 0x5 SSTORE PUSH2 0x758 PUSH2 0xD31 JUMP JUMPDEST PUSH1 0x0 DUP2 GT PUSH2 0x798 JUMPI PUSH1 0x40 MLOAD PUSH3 0x461BCD PUSH1 0xE5 SHL DUP2 MSTORE PUSH1 0x20 PUSH1 0x4 DUP3 ADD MSTORE PUSH1 0x8 PUSH1 0x24 DUP3 ADD MSTORE PUSH8 0x7368617265733D3 PUSH1 0xC4 SHL PUSH1 0x44 DUP3 ADD MSTORE PUSH1 0x64 ADD JUMPDEST PUSH1 0x40 MLOAD DUP1 SWAP2 SUB SWAP1 REVERT JUMPDEST PUSH1 0x0 PUSH8 0xDE0B6B3A7640000 PUSH2 0x7AB PUSH2 0xB3F JUMP JUMPDEST PUSH2 0x7B5 SWAP1 DUP5 PUSH2 0x16A7 JUMP JUMPDEST PUSH2 0x7BF SWAP2 SWAP1 PUSH2 0x16BE JUMP JUMPDEST SWAP1 POP PUSH1 0x8 SLOAD DUP2 GT ISZERO PUSH2 0x7FE JUMPI PUSH1 0x40 MLOAD PUSH3 0x461BCD PUSH1 0xE5 SHL DUP2 MSTORE PUSH1 0x20 PUSH1 0x4 DUP3 ADD MSTORE PUSH1 0x8 PUSH1 0x24 DUP3 ADD MSTORE PUSH8 0x1A5B1B1A5C5D5A59 PUSH1 0xC2 SHL PUSH1 0x44 DUP3 ADD MSTORE PUSH1 0x64 ADD PUSH2 0x78F JUMP JUMPDEST PUSH2 0x808 CALLER DUP4 PUSH2 0x1435 JUMP JUMPDEST DUP1 PUSH1 0x8 PUSH1 0x0 DUP3 DUP3 SLOAD PUSH2 0x81A SWAP2 SWAP1 PUSH2 0x16E0 JUMP JUMPDEST SWAP1 SWAP2 SSTORE POP POP PUSH1 0x40 MLOAD PUSH4 0xA9059CBB PUSH1 0xE0 SHL DUP2 MSTORE CALLER PUSH1 0x4 DUP3 ADD MSTORE PUSH1 0x24 DUP2 ADD DUP3 SWAP1 MSTORE PUSH32 0x0 PUSH1 0x1 PUSH1 0x1 PUSH1 0xA0 SHL SUB AND SWAP1 PUSH4 0xA9059CBB SWAP1 PUSH1 0x44 ADD PUSH1 0x20 PUSH1 0x40 MLOAD DUP1 DUP4 SUB DUP2 PUSH1 0x0 DUP8 GAS CALL ISZERO DUP1 ISZERO PUSH2 0x88C JUMPI RETURNDATASIZE PUSH1 0x0 DUP1 RETURNDATACOPY RETURNDATASIZE PUSH1 0x0 REVERT JUMPDEST POP POP POP POP PUSH1 0x40 MLOAD RETURNDATASIZE PUSH1 0x1F NOT PUSH1 0x1F DUP3 ADD AND DUP3 ADD DUP1 PUSH1 0x40 MSTORE POP DUP2 ADD SWAP1 PUSH2 0x8B0 SWAP2 SWAP1 PUSH2 0x1706 JUMP JUMPDEST PUSH2 0x8CC JUMPI PUSH1 0x40 MLOAD PUSH3 0x461BCD PUSH1 0xE5 SHL DUP2 MSTORE PUSH1 0x4 ADD PUSH2 0x78F SWAP1 PUSH2 0x1728 JUMP JUMPDEST PUSH1 0x40 DUP1 MLOAD DUP4 DUP2 MSTORE PUSH1 0x20 DUP2 ADD DUP4 SWAP1 MSTORE CALLER SWAP2 PUSH32 0xF279E6A1F5E320CCA91135676D9CB6E44CA8A08C0B88342BCDB1144F6511B568 SWAP2 ADD PUSH1 0x40 MLOAD DUP1 SWAP2 SUB SWAP1 LOG2 POP POP PUSH1 0x1 PUSH1 0x5 SSTORE JUMP JUMPDEST PUSH1 0x5 SLOAD PUSH1 0x1 EQ PUSH2 0x91F JUMPI PUSH1 0x0 DUP1 REVERT JUMPDEST PUSH1 0x2 PUSH1 0x5 SSTORE PUSH2 0x92C PUSH2 0xD31 JUMP JUMPDEST CALLER PUSH1 0x0 SWAP1 DUP2 MSTORE PUSH1 0x12 PUSH1 0x20 MSTORE PUSH1 0x40 SWAP1 KECCAK256 SLOAD PUSH2 0x972 JUMPI PUSH1 0x40 MLOAD PUSH3 0x461BCD PUSH1 0xE5 SHL DUP2 MSTORE PUSH1 0x20 PUSH1 0x4 DUP3 ADD MSTORE PUSH1 0x7 PUSH1 0x24 DUP3 ADD MSTORE PUSH7 0x1B9BC81919589D PUSH1 0xCA SHL PUSH1 0x44 DUP3 ADD MSTORE PUSH1 0x64 ADD PUSH2 0x78F JUMP JUMPDEST PUSH1 0x0 PUSH2 0x97D CALLER PUSH2 0x5B1 JUMP JUMPDEST SWAP1 POP PUSH1 0x0 DUP2 DUP4 GT PUSH2 0x98E JUMPI DUP3 PUSH2 0x990 JUMP JUMPDEST DUP2 JUMPDEST PUSH1 0x40 MLOAD PUSH4 0x23B872DD PUSH1 0xE0 SHL DUP2 MSTORE CALLER PUSH1 0x4 DUP3 ADD MSTORE ADDRESS PUSH1 0x24 DUP3 ADD MSTORE PUSH1 0x44 DUP2 ADD DUP3 SWAP1 MSTORE SWAP1 SWAP2 POP PUSH32 0x0 PUSH1 0x1 PUSH1 0x1 PUSH1 0xA0 SHL SUB AND SWAP1 PUSH4 0x23B872DD SWAP1 PUSH1 0x64 ADD PUSH1 0x20 PUSH1 0x40 MLOAD DUP1 DUP4 SUB DUP2 PUSH1 0x0 DUP8 GAS CALL ISZERO DUP1 ISZERO PUSH2 0xA06 JUMPI RETURNDATASIZE PUSH1 0x0 DUP1 RETURNDATACOPY RETURNDATASIZE PUSH1 0x0 REVERT JUMPDEST POP POP POP POP PUSH1 0x40 MLOAD RETURNDATASIZE PUSH1 0x1F NOT PUSH1 0x1F DUP3 ADD AND DUP3 ADD DUP1 PUSH1 0x40 MSTORE POP DUP2 ADD SWAP1 PUSH2 0xA2A SWAP2 SWAP1 PUSH2 0x1706 JUMP JUMPDEST PUSH2 0xA46 JUMPI PUSH1 0x40 MLOAD PUSH3 0x461BCD PUSH1 0xE5 SHL DUP2 MSTORE PUSH1 0x4 ADD PUSH2 0x78F SWAP1 PUSH2 0x1728 JUMP JUMPDEST DUP1 PUSH1 0x8 PUSH1 0x0 DUP3 DUP3 SLOAD PUSH2 0xA58 SWAP2 SWAP1 PUSH2 0x16F3 JUMP JUMPDEST SWAP1 SWAP2 SSTORE POP POP CALLER PUSH1 0x0 SWAP1 DUP2 MSTORE PUSH1 0x12 PUSH1 0x20 MSTORE PUSH1 0x40 SWAP1 KECCAK256 SLOAD DUP2 LT PUSH2 0xAC1 JUMPI CALLER PUSH1 0x0 SWAP1 DUP2 MSTORE PUSH1 0x12 PUSH1 0x20 MSTORE PUSH1 0x40 DUP2 KECCAK256 SLOAD PUSH1 0x9 DUP1 SLOAD SWAP2 SWAP3 SWAP1 SWAP2 PUSH2 0xA96 SWAP1 DUP5 SWAP1 PUSH2 0x16E0 JUMP JUMPDEST SWAP1 SWAP2 SSTORE POP POP CALLER PUSH1 0x0 SWAP1 DUP2 MSTORE PUSH1 0x12 PUSH1 0x20 SWAP1 DUP2 MSTORE PUSH1 0x40 DUP1 DUP4 KECCAK256 DUP4 SWAP1 SSTORE PUSH1 0xB SLOAD PUSH1 0x13 SWAP1 SWAP3 MSTORE SWAP1 SWAP2 KECCAK256 SSTORE PUSH2 0xAFF JUMP JUMPDEST CALLER PUSH1 0x0 SWAP1 DUP2 MSTORE PUSH1 0x12 PUSH1 0x20 MSTORE PUSH1 0x40 DUP2 KECCAK256 DUP1 SLOAD DUP4 SWAP3 SWAP1 PUSH2 0xAE0 SWAP1 DUP5 SWAP1 PUSH2 0x16E0 JUMP JUMPDEST SWAP3 POP POP DUP2 SWAP1 SSTORE POP DUP1 PUSH1 0x9 PUSH1 0x0 DUP3 DUP3 SLOAD PUSH2 0xAF9 SWAP2 SWAP1 PUSH2 0x16E0 JUMP JUMPDEST SWAP1 SWAP2 SSTORE POP POP JUMPDEST PUSH1 0x40 MLOAD DUP2 DUP2 MSTORE CALLER SWAP1 PUSH32 0x5C16DE4F8B59BD9CAF0F49A545F25819A895ED223294290B408242E72A594231 SWAP1 PUSH1 0x20 ADD JUMPDEST PUSH1 0x40 MLOAD DUP1 SWAP2 SUB SWAP1 LOG2 POP POP PUSH1 0x1 PUSH1 0x5 SSTORE POP JUMP JUMPDEST PUSH1 0x0 DUP1 PUSH1 0x2 SLOAD SWAP1 POP PUSH1 0x0 PUSH1 0xA SLOAD PUSH1 0x9 SLOAD PUSH1 0x8 SLOAD PUSH2 0xB5C SWAP2 SWAP1 PUSH2 0x16F3 JUMP JUMPDEST PUSH2 0xB66 SWAP2 SWAP1 PUSH2 0x16E0 JUMP JUMPDEST SWAP1 POP DUP2 ISZERO PUSH2 0xB90 JUMPI DUP2 PUSH2 0xB81 DUP3 PUSH8 0xDE0B6B3A7640000 PUSH2 0x16A7 JUMP JUMPDEST PUSH2 0xB8B SWAP2 SWAP1 PUSH2 0x16BE JUMP JUMPDEST PUSH2 0xB9A JUMP JUMPDEST PUSH8 0xDE0B6B3A7640000 JUMPDEST SWAP3 POP POP POP SWAP1 JUMP JUMPDEST PUSH1 0x0 DUP1 PUSH2 0xBAC PUSH2 0x13EC JUMP JUMPDEST SWAP1 POP PUSH1 0x11 SLOAD DUP2 GT PUSH2 0xBEB JUMPI PUSH8 0xDE0B6B3A7640000 DUP2 PUSH1 0xF SLOAD PUSH2 0xBCE SWAP2 SWAP1 PUSH2 0x16A7 JUMP JUMPDEST PUSH2 0xBD8 SWAP2 SWAP1 PUSH2 0x16BE JUMP JUMPDEST PUSH1 0xE SLOAD PUSH2 0xBE5 SWAP2 SWAP1 PUSH2 0x16F3 JUMP JUMPDEST SWAP2 POP POP SWAP1 JUMP JUMPDEST PUSH1 0x0 PUSH8 0xDE0B6B3A7640000 PUSH1 0x11 SLOAD PUSH1 0xF SLOAD PUSH2 0xC06 SWAP2 SWAP1 PUSH2 0x16A7 JUMP JUMPDEST PUSH2 0xC10 SWAP2 SWAP1 PUSH2 0x16BE JUMP JUMPDEST PUSH1 0xE SLOAD PUSH2 0xC1D SWAP2 SWAP1 PUSH2 0x16F3 JUMP JUMPDEST SWAP1 POP PUSH8 0xDE0B6B3A7640000 PUSH1 0x11 SLOAD DUP4 PUSH2 0xC36 SWAP2 SWAP1 PUSH2 0x16E0 JUMP JUMPDEST PUSH1 0x10 SLOAD PUSH2 0xC43 SWAP2 SWAP1 PUSH2 0x16A7 JUMP JUMPDEST PUSH2 0xC4D SWAP2 SWAP1 PUSH2 0x16BE JUMP JUMPDEST PUSH2 0xB9A SWAP1 DUP3 PUSH2 0x16F3 JUMP JUMPDEST PUSH1 0x0 DUP1 PUSH2 0xC62 PUSH2 0xBA1 JUMP JUMPDEST SWAP1 POP PUSH1 0x0 PUSH2 0xC6E PUSH2 0x13EC JUMP JUMPDEST SWAP1 POP PUSH8 0xDE0B6B3A7640000 PUSH1 0xD SLOAD PUSH8 0xDE0B6B3A7640000 PUSH2 0xC8F SWAP2 SWAP1 PUSH2 0x16E0 JUMP JUMPDEST PUSH8 0xDE0B6B3A7640000 PUSH2 0xCA2 DUP5 DUP7 PUSH2 0x16A7 JUMP JUMPDEST PUSH2 0xCAC SWAP2 SWAP1 PUSH2 0x16BE JUMP JUMPDEST PUSH2 0xCB6 SWAP2 SWAP1 PUSH2 0x16A7 JUMP JUMPDEST PUSH2 0xB9A SWAP2 SWAP1 PUSH2 0x16BE JUMP JUMPDEST PUSH1 0x7 SLOAD PUSH1 0x1 PUSH1 0x1 PUSH1 0xA0 SHL SUB AND CALLER EQ PUSH2 0xD02 JUMPI PUSH1 0x40 MLOAD PUSH3 0x461BCD PUSH1 0xE5 SHL DUP2 MSTORE PUSH1 0x20 PUSH1 0x4 DUP3 ADD MSTORE PUSH1 0x5 PUSH1 0x24 DUP3 ADD MSTORE PUSH5 0x20A226A4A7 PUSH1 0xD9 SHL PUSH1 0x44 DUP3 ADD MSTORE PUSH1 0x64 ADD PUSH2 0x78F JUMP JUMPDEST PUSH1 0x6 DUP1 SLOAD PUSH1 0x1 PUSH1 0x1 PUSH1 0xA0 SHL SUB NOT AND PUSH1 0x1 PUSH1 0x1 PUSH1 0xA0 SHL SUB SWAP3 SWAP1 SWAP3 AND SWAP2 SWAP1 SWAP2 OR SWAP1 SSTORE JUMP JUMPDEST PUSH1 0x1 DUP1 SLOAD PUSH2 0x4C3 SWAP1 PUSH2 0x1657 JUMP JUMPDEST PUSH1 0x0 PUSH1 0xC SLOAD TIMESTAMP PUSH2 0xD41 SWAP2 SWAP1 PUSH2 0x16E0 JUMP JUMPDEST SWAP1 POP DUP1 PUSH1 0x0 SUB PUSH2 0xD4E JUMPI POP JUMP JUMPDEST PUSH1 0x0 PUSH2 0xD58 PUSH2 0xBA1 JUMP JUMPDEST SWAP1 POP PUSH1 0x0 PUSH8 0xDE0B6B3A7640000 DUP4 DUP4 PUSH1 0x9 SLOAD PUSH2 0xD74 SWAP2 SWAP1 PUSH2 0x16A7 JUMP JUMPDEST PUSH2 0xD7E SWAP2 SWAP1 PUSH2 0x16A7 JUMP JUMPDEST PUSH2 0xD88 SWAP2 SWAP1 PUSH2 0x16BE JUMP JUMPDEST SWAP1 POP DUP1 PUSH1 0x9 PUSH1 0x0 DUP3 DUP3 SLOAD PUSH2 0xD9C SWAP2 SWAP1 PUSH2 0x16F3 JUMP JUMPDEST SWAP1 SWAP2 SSTORE POP POP PUSH1 0xD SLOAD PUSH1 0x0 SWAP1 PUSH8 0xDE0B6B3A7640000 SWAP1 PUSH2 0xDBB SWAP1 DUP5 PUSH2 0x16A7 JUMP JUMPDEST PUSH2 0xDC5 SWAP2 SWAP1 PUSH2 0x16BE JUMP JUMPDEST SWAP1 POP DUP1 PUSH1 0xA PUSH1 0x0 DUP3 DUP3 SLOAD PUSH2 0xDD9 SWAP2 SWAP1 PUSH2 0x16F3 JUMP JUMPDEST SWAP3 POP POP DUP2 SWAP1 SSTORE POP PUSH8 0xDE0B6B3A7640000 DUP5 DUP5 PUSH1 0xB SLOAD PUSH2 0xDF8 SWAP2 SWAP1 PUSH2 0x16A7 JUMP JUMPDEST PUSH2 0xE02 SWAP2 SWAP1 PUSH2 0x16A7 JUMP JUMPDEST PUSH2 0xE0C SWAP2 SWAP1 PUSH2 0x16BE JUMP JUMPDEST PUSH1 0xB SLOAD PUSH2 0xE19 SWAP2 SWAP1 PUSH2 0x16F3 JUMP JUMPDEST PUSH1 0xB SSTORE POP POP TIMESTAMP PUSH1 0xC SSTORE POP POP JUMP JUMPDEST CALLER PUSH1 0x0 SWAP1 DUP2 MSTORE PUSH1 0x3 PUSH1 0x20 MSTORE PUSH1 0x40 DUP2 KECCAK256 DUP1 SLOAD DUP4 SWAP2 SWAP1 DUP4 SWAP1 PUSH2 0xE47 SWAP1 DUP5 SWAP1 PUSH2 0x16E0 JUMP JUMPDEST SWAP1 SWAP2 SSTORE POP POP PUSH1 0x1 PUSH1 0x1 PUSH1 0xA0 SHL SUB DUP4 AND PUSH1 0x0 SWAP1 DUP2 MSTORE PUSH1 0x3 PUSH1 0x20 MSTORE PUSH1 0x40 DUP2 KECCAK256 DUP1 SLOAD DUP5 SWAP3 SWAP1 PUSH2 0xE74 SWAP1 DUP5 SWAP1 PUSH2 0x16F3 JUMP JUMPDEST SWAP1 SWAP2 SSTORE POP POP PUSH1 0x40 MLOAD DUP3 DUP2 MSTORE PUSH1 0x1 PUSH1 0x1 PUSH1 0xA0 SHL SUB DUP5 AND SWAP1 CALLER SWAP1 PUSH1 0x0 DUP1 MLOAD PUSH1 0x20 PUSH2 0x1747 DUP4 CODECOPY DUP2 MLOAD SWAP2 MSTORE SWAP1 PUSH1 0x20 ADD PUSH2 0x59F JUMP JUMPDEST PUSH1 0x5 SLOAD PUSH1 0x1 EQ PUSH2 0xEB3 JUMPI PUSH1 0x0 DUP1 REVERT JUMPDEST PUSH1 0x2 PUSH1 0x5 SSTORE PUSH2 0xEC0 PUSH2 0xD31 JUMP JUMPDEST PUSH1 0x0 DUP2 GT PUSH2 0xEFB JUMPI PUSH1 0x40 MLOAD PUSH3 0x461BCD PUSH1 0xE5 SHL DUP2 MSTORE PUSH1 0x20 PUSH1 0x4 DUP3 ADD MSTORE PUSH1 0x8 PUSH1 0x24 DUP3 ADD MSTORE PUSH8 0x616D6F756E743D3 PUSH1 0xC4 SHL PUSH1 0x44 DUP3 ADD MSTORE PUSH1 0x64 ADD PUSH2 0x78F JUMP JUMPDEST PUSH1 0x0 PUSH2 0xF05 PUSH2 0xB3F JUMP JUMPDEST SWAP1 POP PUSH1 0x0 PUSH1 0x2 SLOAD PUSH1 0x0 EQ PUSH2 0xF35 JUMPI DUP2 PUSH2 0xF26 DUP5 PUSH8 0xDE0B6B3A7640000 PUSH2 0x16A7 JUMP JUMPDEST PUSH2 0xF30 SWAP2 SWAP1 PUSH2 0x16BE JUMP JUMPDEST PUSH2 0xF37 JUMP JUMPDEST DUP3 JUMPDEST PUSH1 0x40 MLOAD PUSH4 0x23B872DD PUSH1 0xE0 SHL DUP2 MSTORE CALLER PUSH1 0x4 DUP3 ADD MSTORE ADDRESS PUSH1 0x24 DUP3 ADD MSTORE PUSH1 0x44 DUP2 ADD DUP6 SWAP1 MSTORE SWAP1 SWAP2 POP PUSH32 0x0 PUSH1 0x1 PUSH1 0x1 PUSH1 0xA0 SHL SUB AND SWAP1 PUSH4 0x23B872DD SWAP1 PUSH1 0x64 ADD PUSH1 0x20 PUSH1 0x40 MLOAD DUP1 DUP4 SUB DUP2 PUSH1 0x0 DUP8 GAS CALL ISZERO DUP1 ISZERO PUSH2 0xFAD JUMPI RETURNDATASIZE PUSH1 0x0 DUP1 RETURNDATACOPY RETURNDATASIZE PUSH1 0x0 REVERT JUMPDEST POP POP POP POP PUSH1 0x40 MLOAD RETURNDATASIZE PUSH1 0x1F NOT PUSH1 0x1F DUP3 ADD AND DUP3 ADD DUP1 PUSH1 0x40 MSTORE POP DUP2 ADD SWAP1 PUSH2 0xFD1 SWAP2 SWAP1 PUSH2 0x1706 JUMP JUMPDEST PUSH2 0xFED JUMPI PUSH1 0x40 MLOAD PUSH3 0x461BCD PUSH1 0xE5 SHL DUP2 MSTORE PUSH1 0x4 ADD PUSH2 0x78F SWAP1 PUSH2 0x1728 JUMP JUMPDEST DUP3 PUSH1 0x8 PUSH1 0x0 DUP3 DUP3 SLOAD PUSH2 0xFFF SWAP2 SWAP1 PUSH2 0x16F3 JUMP JUMPDEST SWAP1 SWAP2 SSTORE POP PUSH2 0x100F SWAP1 POP CALLER DUP3 PUSH2 0x14AF JUMP JUMPDEST PUSH1 0x40 DUP1 MLOAD DUP5 DUP2 MSTORE PUSH1 0x20 DUP2 ADD DUP4 SWAP1 MSTORE CALLER SWAP2 PUSH32 0x90890809C654F11D6E72A28FA60149770A0D11EC6C92319D6CEB2BB0A4EA1A15 SWAP2 ADD PUSH2 0xB2D JUMP JUMPDEST PUSH1 0x7 SLOAD PUSH1 0x1 PUSH1 0x1 PUSH1 0xA0 SHL SUB AND CALLER EQ PUSH2 0x1089 JUMPI PUSH1 0x40 MLOAD PUSH3 0x461BCD PUSH1 0xE5 SHL DUP2 MSTORE PUSH1 0x20 PUSH1 0x4 DUP3 ADD MSTORE PUSH1 0x5 PUSH1 0x24 DUP3 ADD MSTORE PUSH5 0x20A226A4A7 PUSH1 0xD9 SHL PUSH1 0x44 DUP3 ADD MSTORE PUSH1 0x64 ADD PUSH2 0x78F JUMP JUMPDEST PUSH2 0x1091 PUSH2 0xD31 JUMP JUMPDEST PUSH1 0x0 PUSH2 0x109C DUP3 PUSH2 0x5B1 JUMP JUMPDEST SWAP1 POP DUP1 PUSH1 0x0 SUB PUSH2 0x10AA JUMPI POP POP JUMP JUMPDEST PUSH1 0xA SLOAD DUP2 DUP2 LT PUSH2 0x10C6 JUMPI PUSH2 0x10BE DUP3 DUP3 PUSH2 0x16E0 JUMP JUMPDEST PUSH1 0xA SSTORE PUSH2 0x1108 JUMP JUMPDEST PUSH1 0x0 PUSH2 0x10D2 DUP3 DUP5 PUSH2 0x16E0 JUMP JUMPDEST PUSH1 0x0 PUSH1 0xA SSTORE PUSH1 0x9 SLOAD SWAP1 SWAP2 POP DUP2 GT ISZERO PUSH2 0x10EE JUMPI PUSH1 0x0 PUSH1 0x9 SSTORE PUSH2 0x1106 JUMP JUMPDEST DUP1 PUSH1 0x9 PUSH1 0x0 DUP3 DUP3 SLOAD PUSH2 0x1100 SWAP2 SWAP1 PUSH2 0x16E0 JUMP JUMPDEST SWAP1 SWAP2 SSTORE POP POP JUMPDEST POP JUMPDEST POP POP PUSH1 0x1 PUSH1 0x1 PUSH1 0xA0 SHL SUB AND PUSH1 0x0 SWAP1 DUP2 MSTORE PUSH1 0x12 PUSH1 0x20 SWAP1 DUP2 MSTORE PUSH1 0x40 DUP1 DUP4 KECCAK256 DUP4 SWAP1 SSTORE PUSH1 0xB SLOAD PUSH1 0x13 SWAP1 SWAP3 MSTORE SWAP1 SWAP2 KECCAK256 SSTORE JUMP JUMPDEST PUSH1 0x5 SLOAD PUSH1 0x1 EQ PUSH2 0x1144 JUMPI PUSH1 0x0 DUP1 REVERT JUMPDEST PUSH1 0x2 PUSH1 0x5 SSTORE PUSH2 0x1151 PUSH2 0xD31 JUMP JUMPDEST PUSH1 0x6 SLOAD PUSH1 0x1 PUSH1 0x1 PUSH1 0xA0 SHL SUB AND PUSH2 0x1192 JUMPI PUSH1 0x40 MLOAD PUSH3 0x461BCD PUSH1 0xE5 SHL DUP2 MSTORE PUSH1 0x20 PUSH1 0x4 DUP3 ADD MSTORE PUSH1 0x6 PUSH1 0x24 DUP3 ADD MSTORE PUSH6 0x706F6C696379 PUSH1 0xD0 SHL PUSH1 0x44 DUP3 ADD MSTORE PUSH1 0x64 ADD PUSH2 0x78F JUMP JUMPDEST PUSH1 0x6 SLOAD PUSH1 0x40 MLOAD PUSH4 0x33E32311 PUSH1 0xE2 SHL DUP2 MSTORE CALLER PUSH1 0x4 DUP3 ADD MSTORE PUSH1 0x24 DUP2 ADD DUP4 SWAP1 MSTORE PUSH1 0x1 PUSH1 0x1 PUSH1 0xA0 SHL SUB SWAP1 SWAP2 AND SWAP1 PUSH4 0xCF8C8C44 SWAP1 PUSH1 0x44 ADD PUSH1 0x20 PUSH1 0x40 MLOAD DUP1 DUP4 SUB DUP2 DUP7 GAS STATICCALL ISZERO DUP1 ISZERO PUSH2 0x11E1 JUMPI RETURNDATASIZE PUSH1 0x0 DUP1 RETURNDATACOPY RETURNDATASIZE PUSH1 0x0 REVERT JUMPDEST POP POP POP POP PUSH1 0x40 MLOAD RETURNDATASIZE PUSH1 0x1F NOT PUSH1 0x1F DUP3 ADD AND DUP3 ADD DUP1 PUSH1 0x40 MSTORE POP DUP2 ADD SWAP1 PUSH2 0x1205 SWAP2 SWAP1 PUSH2 0x1706 JUMP JUMPDEST PUSH2 0x123A JUMPI PUSH1 0x40 MLOAD PUSH3 0x461BCD PUSH1 0xE5 SHL DUP2 MSTORE PUSH1 0x20 PUSH1 0x4 DUP3 ADD MSTORE PUSH1 0x6 PUSH1 0x24 DUP3 ADD MSTORE PUSH6 0x1C995A9958DD PUSH1 0xD2 SHL PUSH1 0x44 DUP3 ADD MSTORE PUSH1 0x64 ADD PUSH2 0x78F JUMP JUMPDEST PUSH1 0x0 DUP2 GT DUP1 ISZERO PUSH2 0x124C JUMPI POP PUSH1 0x8 SLOAD DUP2 GT ISZERO JUMPDEST PUSH2 0x127E JUMPI PUSH1 0x40 MLOAD PUSH3 0x461BCD PUSH1 0xE5 SHL DUP2 MSTORE PUSH1 0x20 PUSH1 0x4 DUP3 ADD MSTORE PUSH1 0x3 PUSH1 0x24 DUP3 ADD MSTORE PUSH3 0x185B5D PUSH1 0xEA SHL PUSH1 0x44 DUP3 ADD MSTORE PUSH1 0x64 ADD PUSH2 0x78F JUMP JUMPDEST DUP1 PUSH1 0x8 PUSH1 0x0 DUP3 DUP3 SLOAD PUSH2 0x1290 SWAP2 SWAP1 PUSH2 0x16E0 JUMP JUMPDEST SWAP3 POP POP DUP2 SWAP1 SSTORE POP DUP1 PUSH1 0x9 PUSH1 0x0 DUP3 DUP3 SLOAD PUSH2 0x12A9 SWAP2 SWAP1 PUSH2 0x16F3 JUMP JUMPDEST SWAP1 SWAP2 SSTORE POP POP CALLER PUSH1 0x0 SWAP1 DUP2 MSTORE PUSH1 0x13 PUSH1 0x20 MSTORE PUSH1 0x40 DUP2 KECCAK256 SLOAD SWAP1 SUB PUSH2 0x12D8 JUMPI PUSH1 0xB SLOAD CALLER PUSH1 0x0 SWAP1 DUP2 MSTORE PUSH1 0x13 PUSH1 0x20 MSTORE PUSH1 0x40 SWAP1 KECCAK256 SSTORE JUMPDEST CALLER PUSH1 0x0 SWAP1 DUP2 MSTORE PUSH1 0x12 PUSH1 0x20 MSTORE PUSH1 0x40 DUP2 KECCAK256 DUP1 SLOAD DUP4 SWAP3 SWAP1 PUSH2 0x12F7 SWAP1 DUP5 SWAP1 PUSH2 0x16F3 JUMP JUMPDEST SWAP1 SWAP2 SSTORE POP POP PUSH1 0x40 MLOAD PUSH4 0xA9059CBB PUSH1 0xE0 SHL DUP2 MSTORE CALLER PUSH1 0x4 DUP3 ADD MSTORE PUSH1 0x24 DUP2 ADD DUP3 SWAP1 MSTORE PUSH32 0x0 PUSH1 0x1 PUSH1 0x1 PUSH1 0xA0 SHL SUB AND SWAP1 PUSH4 0xA9059CBB SWAP1 PUSH1 0x44 ADD PUSH1 0x20 PUSH1 0x40 MLOAD DUP1 DUP4 SUB DUP2 PUSH1 0x0 DUP8 GAS CALL ISZERO DUP1 ISZERO PUSH2 0x1369 JUMPI RETURNDATASIZE PUSH1 0x0 DUP1 RETURNDATACOPY RETURNDATASIZE PUSH1 0x0 REVERT JUMPDEST POP POP POP POP PUSH1 0x40 MLOAD RETURNDATASIZE PUSH1 0x1F NOT PUSH1 0x1F DUP3 ADD AND DUP3 ADD DUP1 PUSH1 0x40 MSTORE POP DUP2 ADD SWAP1 PUSH2 0x138D SWAP2 SWAP1 PUSH2 0x1706 JUMP JUMPDEST PUSH2 0x13A9 JUMPI PUSH1 0x40 MLOAD PUSH3 0x461BCD PUSH1 0xE5 SHL DUP2 MSTORE PUSH1 0x4 ADD PUSH2 0x78F SWAP1 PUSH2 0x1728 JUMP JUMPDEST PUSH1 0x40 DUP1 MLOAD DUP3 DUP2 MSTORE PUSH1 0x0 PUSH1 0x20 DUP3 ADD MSTORE CALLER SWAP2 PUSH32 0xE1979FE4C35E0CEF342FEF5668E2C8E7A7E9F5D5D1CA8FEE0AC6C427FA4153AF SWAP2 ADD PUSH1 0x40 MLOAD DUP1 SWAP2 SUB SWAP1 LOG2 POP PUSH1 0x1 PUSH1 0x5 SSTORE JUMP JUMPDEST PUSH1 0x0 DUP1 PUSH1 0x9 SLOAD PUSH1 0x8 SLOAD PUSH2 0x13FF SWAP2 SWAP1 PUSH2 0x16F3 JUMP JUMPDEST SWAP1 POP DUP1 ISZERO PUSH2 0x142D JUMPI DUP1 PUSH1 0x9 SLOAD PUSH8 0xDE0B6B3A7640000 PUSH2 0x141E SWAP2 SWAP1 PUSH2 0x16A7 JUMP JUMPDEST PUSH2 0x1428 SWAP2 SWAP1 PUSH2 0x16BE JUMP JUMPDEST PUSH2 0xBE5 JUMP JUMPDEST PUSH1 0x0 SWAP2 POP POP SWAP1 JUMP JUMPDEST PUSH1 0x1 PUSH1 0x1 PUSH1 0xA0 SHL SUB DUP3 AND PUSH1 0x0 SWAP1 DUP2 MSTORE PUSH1 0x3 PUSH1 0x20 MSTORE PUSH1 0x40 DUP2 KECCAK256 DUP1 SLOAD DUP4 SWAP3 SWAP1 PUSH2 0x145D SWAP1 DUP5 SWAP1 PUSH2 0x16E0 JUMP JUMPDEST SWAP3 POP POP DUP2 SWAP1 SSTORE POP DUP1 PUSH1 0x2 PUSH1 0x0 DUP3 DUP3 SLOAD PUSH2 0x1476 SWAP2 SWAP1 PUSH2 0x16E0 JUMP JUMPDEST SWAP1 SWAP2 SSTORE POP POP PUSH1 0x40 MLOAD DUP2 DUP2 MSTORE PUSH1 0x0 SWAP1 PUSH1 0x1 PUSH1 0x1 PUSH1 0xA0 SHL SUB DUP5 AND SWAP1 PUSH1 0x0 DUP1 MLOAD PUSH1 0x20 PUSH2 0x1747 DUP4 CODECOPY DUP2 MLOAD SWAP2 MSTORE SWAP1 PUSH1 0x20 ADD JUMPDEST PUSH1 0x40 MLOAD DUP1 SWAP2 SUB SWAP1 LOG3 POP POP JUMP JUMPDEST DUP1 PUSH1 0x2 PUSH1 0x0 DUP3 DUP3 SLOAD PUSH2 0x14C1 SWAP2 SWAP1 PUSH2 0x16F3 JUMP JUMPDEST SWAP1 SWAP2 SSTORE POP POP PUSH1 0x1 PUSH1 0x1 PUSH1 0xA0 SHL SUB DUP3 AND PUSH1 0x0 SWAP1 DUP2 MSTORE PUSH1 0x3 PUSH1 0x20 MSTORE PUSH1 0x40 DUP2 KECCAK256 DUP1 SLOAD DUP4 SWAP3 SWAP1 PUSH2 0x14EE SWAP1 DUP5 SWAP1 PUSH2 0x16F3 JUMP JUMPDEST SWAP1 SWAP2 SSTORE POP POP PUSH1 0x40 MLOAD DUP2 DUP2 MSTORE PUSH1 0x1 PUSH1 0x1 PUSH1 0xA0 SHL SUB DUP4 AND SWAP1 PUSH1 0x0 SWAP1 PUSH1 0x0 DUP1 MLOAD PUSH1 0x20 PUSH2 0x1747 DUP4 CODECOPY DUP2 MLOAD SWAP2 MSTORE SWAP1 PUSH1 0x20 ADD PUSH2 0x14A3 JUMP JUMPDEST PUSH1 0x0 PUSH1 0x20 DUP1 DUP4 MSTORE DUP4 MLOAD DUP1 PUSH1 0x20 DUP6 ADD MSTORE PUSH1 0x0 JUMPDEST DUP2 DUP2 LT ISZERO PUSH2 0x154D JUMPI DUP6 DUP2 ADD DUP4 ADD MLOAD DUP6 DUP3 ADD PUSH1 0x40 ADD MSTORE DUP3 ADD PUSH2 0x1531 JUMP JUMPDEST POP PUSH1 0x0 PUSH1 0x40 DUP3 DUP7 ADD ADD MSTORE PUSH1 0x40 PUSH1 0x1F NOT PUSH1 0x1F DUP4 ADD AND DUP6 ADD ADD SWAP3 POP POP POP SWAP3 SWAP2 POP POP JUMP JUMPDEST DUP1 CALLDATALOAD PUSH1 0x1 PUSH1 0x1 PUSH1 0xA0 SHL SUB DUP2 AND DUP2 EQ PUSH2 0x1585 JUMPI PUSH1 0x0 DUP1 REVERT JUMPDEST SWAP2 SWAP1 POP JUMP JUMPDEST PUSH1 0x0 DUP1 PUSH1 0x40 DUP4 DUP6 SUB SLT ISZERO PUSH2 0x159D JUMPI PUSH1 0x0 DUP1 REVERT JUMPDEST PUSH2 0x15A6 DUP4 PUSH2 0x156E JUMP JUMPDEST SWAP5 PUSH1 0x20 SWAP4 SWAP1 SWAP4 ADD CALLDATALOAD SWAP4 POP POP POP JUMP JUMPDEST PUSH1 0x0 PUSH1 0x20 DUP3 DUP5 SUB SLT ISZERO PUSH2 0x15C6 JUMPI PUSH1 0x0 DUP1 REVERT JUMPDEST PUSH2 0x637 DUP3 PUSH2 0x156E JUMP JUMPDEST PUSH1 0x0 DUP1 PUSH1 0x0 PUSH1 0x60 DUP5 DUP7 SUB SLT ISZERO PUSH2 0x15E4 JUMPI PUSH1 0x0 DUP1 REVERT JUMPDEST PUSH2 0x15ED DUP5 PUSH2 0x156E JUMP JUMPDEST SWAP3 POP PUSH2 0x15FB PUSH1 0x20 DUP6 ADD PUSH2 0x156E JUMP JUMPDEST SWAP2 POP PUSH1 0x40 DUP5 ADD CALLDATALOAD SWAP1 POP SWAP3 POP SWAP3 POP SWAP3 JUMP JUMPDEST PUSH1 0x0 PUSH1 0x20 DUP3 DUP5 SUB SLT ISZERO PUSH2 0x161D JUMPI PUSH1 0x0 DUP1 REVERT JUMPDEST POP CALLDATALOAD SWAP2 SWAP1 POP JUMP JUMPDEST PUSH1 0x0 DUP1 PUSH1 0x40 DUP4 DUP6 SUB SLT ISZERO PUSH2 0x1637 JUMPI PUSH1 0x0 DUP1 REVERT JUMPDEST PUSH2 0x1640 DUP4 PUSH2 0x156E JUMP JUMPDEST SWAP2 POP PUSH2 0x164E PUSH1 0x20 DUP5 ADD PUSH2 0x156E JUMP JUMPDEST SWAP1 POP SWAP3 POP SWAP3 SWAP1 POP JUMP JUMPDEST PUSH1 0x1 DUP2 DUP2 SHR SWAP1 DUP3 AND DUP1 PUSH2 0x166B JUMPI PUSH1 0x7F DUP3 AND SWAP2 POP JUMPDEST PUSH1 0x20 DUP3 LT DUP2 SUB PUSH2 0x168B JUMPI PUSH4 0x4E487B71 PUSH1 0xE0 SHL PUSH1 0x0 MSTORE PUSH1 0x22 PUSH1 0x4 MSTORE PUSH1 0x24 PUSH1 0x0 REVERT JUMPDEST POP SWAP2 SWAP1 POP JUMP JUMPDEST PUSH4 0x4E487B71 PUSH1 0xE0 SHL PUSH1 0x0 MSTORE PUSH1 0x11 PUSH1 0x4 MSTORE PUSH1 0x24 PUSH1 0x0 REVERT JUMPDEST DUP1 DUP3 MUL DUP2 ISZERO DUP3 DUP3 DIV DUP5 EQ OR PUSH2 0x5AB JUMPI PUSH2 0x5AB PUSH2 0x1691 JUMP JUMPDEST PUSH1 0x0 DUP3 PUSH2 0x16DB JUMPI PUSH4 0x4E487B71 PUSH1 0xE0 SHL PUSH1 0x0 MSTORE PUSH1 0x12 PUSH1 0x4 MSTORE PUSH1 0x24 PUSH1 0x0 REVERT JUMPDEST POP DIV SWAP1 JUMP JUMPDEST DUP2 DUP2 SUB DUP2 DUP2 GT ISZERO PUSH2 0x5AB JUMPI PUSH2 0x5AB PUSH2 0x1691 JUMP JUMPDEST DUP1 DUP3 ADD DUP1 DUP3 GT ISZERO PUSH2 0x5AB JUMPI PUSH2 0x5AB PUSH2 0x1691 JUMP JUMPDEST PUSH1 0x0 PUSH1 0x20 DUP3 DUP5 SUB SLT ISZERO PUSH2 0x1718 JUMPI PUSH1 0x0 DUP1 REVERT JUMPDEST DUP2 MLOAD DUP1 ISZERO ISZERO DUP2 EQ PUSH2 0x637 JUMPI PUSH1 0x0 DUP1 REVERT JUMPDEST PUSH1 0x20 DUP1 DUP3 MSTORE PUSH1 0x4 SWAP1 DUP3 ADD MSTORE PUSH4 0x3C3332B9 PUSH1 0xE1 SHL PUSH1 0x40 DUP3 ADD MSTORE PUSH1 0x60 ADD SWAP1 JUMP INVALID 0xDD CALLCODE MSTORE 0xAD SHL 0xE2 0xC8 SWAP12 PUSH10 0xC2B068FC378DAA952BA7 CALL PUSH4 0xC4A11628 CREATE2 GAS 0x4D CREATE2 0x23 0xB3 0xEF LOG2 PUSH5 0x6970667358 0x22 SLT KECCAK256 0xE8 0xCF CALLDATALOAD PUSH10 0x3107F772098EF2BD2F30 0xC2 0x2A PUSH9 0xDF59A4F969530E80B4 PUSH14 0x86FB42B8DA64736F6C6343000818 STOP CALLER "},"methodIdentifiers":{"accrualTimestamp()":"b95b92a3","accrueInterest()":"a6afed95","admin()":"f851a440","allowance(address,address)":"dd62ed3e","approve(address,uint256)":"095ea7b3","asset()":"38d52e0f","balanceOf(address)":"70a08231","baseRate()":"1f68f20a","borrow(uint256)":"c5ebeaec","borrowBalanceCurrent(address)":"17bfdfbc","borrowIndex()":"aa5af0fd","borrowRatePerSec()":"56150b41","borrowerIndex(address)":"b026e6bd","decimals()":"313ce567","deposit(uint256)":"b6b55f25","exchangeRate()":"3ba0b9a9","kink()":"fd2da339","markDefault(address)":"be81c4d4","name()":"06fdde03","policy()":"0505c8c9","principal(address)":"2ce0f9d6","repay(uint256)":"371fd8e6","reserveFactor()":"4322b714","setPolicy(address)":"7d4163d3","slope1()":"a62b75a8","slope2()":"d0134cb7","supplyRatePerSec()":"587a5e50","symbol()":"95d89b41","totalBorrows()":"47bd3718","totalCash()":"bee12d53","totalReserves()":"8f840ddd","totalSupply()":"18160ddd","transfer(address,uint256)":"a9059cbb","transferFrom(address,address,uint256)":"23b872dd","utilization()":"ea21cd92","withdraw(uint256)":"2e1a7d4d"}}}}}