{
  "_format": "hh-sol-artifact-1",
  "contractName": "CeloPayPool",
  "sourceName": "contracts/Pool.sol",
  "abi": [
    {
      "inputs": [
        {
          "internalType": "address",
          "name": "_asset",
          "type": "address"
        }
      ],
      "stateMutability": "nonpayable",
      "type": "constructor"
    },
    {
      "anonymous": false,
      "inputs": [
        {
          "indexed": true,
          "internalType": "address",
          "name": "owner",
          "type": "address"
        },
        {
          "indexed": true,
          "internalType": "address",
          "name": "spender",
          "type": "address"
        },
        {
          "indexed": false,
          "internalType": "uint256",
          "name": "value",
          "type": "uint256"
        }
      ],
      "name": "Approval",
      "type": "event"
    },
    {
      "anonymous": false,
      "inputs": [
        {
          "indexed": true,
          "internalType": "address",
          "name": "user",
          "type": "address"
        },
        {
          "indexed": false,
          "internalType": "uint256",
          "name": "amount",
          "type": "uint256"
        },
        {
          "indexed": false,
          "internalType": "uint256",
          "name": "fee",
          "type": "uint256"
        }
      ],
      "name": "Borrow",
      "type": "event"
    },
    {
      "anonymous": false,
      "inputs": [
        {
          "indexed": true,
          "internalType": "address",
          "name": "user",
          "type": "address"
        },
        {
          "indexed": false,
          "internalType": "uint256",
          "name": "amount",
          "type": "uint256"
        },
        {
          "indexed": false,
          "internalType": "uint256",
          "name": "shares",
          "type": "uint256"
        }
      ],
      "name": "Deposit",
      "type": "event"
    },
    {
      "anonymous": false,
      "inputs": [
        {
          "indexed": true,
          "internalType": "address",
          "name": "user",
          "type": "address"
        },
        {
          "indexed": false,
          "internalType": "uint256",
          "name": "amount",
          "type": "uint256"
        }
      ],
      "name": "Repay",
      "type": "event"
    },
    {
      "anonymous": false,
      "inputs": [
        {
          "indexed": true,
          "internalType": "address",
          "name": "from",
          "type": "address"
        },
        {
          "indexed": true,
          "internalType": "address",
          "name": "to",
          "type": "address"
        },
        {
          "indexed": false,
          "internalType": "uint256",
          "name": "value",
          "type": "uint256"
        }
      ],
      "name": "Transfer",
      "type": "event"
    },
    {
      "anonymous": false,
      "inputs": [
        {
          "indexed": true,
          "internalType": "address",
          "name": "user",
          "type": "address"
        },
        {
          "indexed": false,
          "internalType": "uint256",
          "name": "shares",
          "type": "uint256"
        },
        {
          "indexed": false,
          "internalType": "uint256",
          "name": "amount",
          "type": "uint256"
        }
      ],
      "name": "Withdraw",
      "type": "event"
    },
    {
      "inputs": [],
      "name": "accrualTimestamp",
      "outputs": [
        {
          "internalType": "uint256",
          "name": "",
          "type": "uint256"
        }
      ],
      "stateMutability": "view",
      "type": "function"
    },
    {
      "inputs": [],
      "name": "accrueInterest",
      "outputs": [],
      "stateMutability": "nonpayable",
      "type": "function"
    },
    {
      "inputs": [],
      "name": "admin",
      "outputs": [
        {
          "internalType": "address",
          "name": "",
          "type": "address"
        }
      ],
      "stateMutability": "view",
      "type": "function"
    },
    {
      "inputs": [
        {
          "internalType": "address",
          "name": "",
          "type": "address"
        },
        {
          "internalType": "address",
          "name": "",
          "type": "address"
        }
      ],
      "name": "allowance",
      "outputs": [
        {
          "internalType": "uint256",
          "name": "",
          "type": "uint256"
        }
      ],
      "stateMutability": "view",
      "type": "function"
    },
    {
      "inputs": [
        {
          "internalType": "address",
          "name": "sp",
          "type": "address"
        },
        {
          "internalType": "uint256",
          "name": "a",
          "type": "uint256"
        }
      ],
      "name": "approve",
      "outputs": [
        {
          "internalType": "bool",
          "name": "",
          "type": "bool"
        }
      ],
      "stateMutability": "nonpayable",
      "type": "function"
    },
    {
      "inputs": [],
      "name": "asset",
      "outputs": [
        {
          "internalType": "contract IERC20",
          "name": "",
          "type": "address"
        }
      ],
      "stateMutability": "view",
      "type": "function"
    },
    {
      "inputs": [
        {
          "internalType": "address",
          "name": "",
          "type": "address"
        }
      ],
      "name": "balanceOf",
      "outputs": [
        {
          "internalType": "uint256",
          "name": "",
          "type": "uint256"
        }
      ],
      "stateMutability": "view",
      "type": "function"
    },
    {
      "inputs": [],
      "name": "baseRate",
      "outputs": [
        {
          "internalType": "uint256",
          "name": "",
          "type": "uint256"
        }
      ],
      "stateMutability": "view",
      "type": "function"
    },
    {
      "inputs": [
        {
          "internalType": "uint256",
          "name": "amount",
          "type": "uint256"
        }
      ],
      "name": "borrow",
      "outputs": [],
      "stateMutability": "nonpayable",
      "type": "function"
    },
    {
      "inputs": [
        {
          "internalType": "address",
          "name": "b",
          "type": "address"
        }
      ],
      "name": "borrowBalanceCurrent",
      "outputs": [
        {
          "internalType": "uint256",
          "name": "",
          "type": "uint256"
        }
      ],
      "stateMutability": "view",
      "type": "function"
    },
    {
      "inputs": [],
      "name": "borrowIndex",
      "outputs": [
        {
          "internalType": "uint256",
          "name": "",
          "type": "uint256"
        }
      ],
      "stateMutability": "view",
      "type": "function"
    },
    {
      "inputs": [],
      "name": "borrowRatePerSec",
      "outputs": [
        {
          "internalType": "uint256",
          "name": "",
          "type": "uint256"
        }
      ],
      "stateMutability": "view",
      "type": "function"
    },
    {
      "inputs": [
        {
          "internalType": "address",
          "name": "",
          "type": "address"
        }
      ],
      "name": "borrowerIndex",
      "outputs": [
        {
          "internalType": "uint256",
          "name": "",
          "type": "uint256"
        }
      ],
      "stateMutability": "view",
      "type": "function"
    },
    {
      "inputs": [],
      "name": "decimals",
      "outputs": [
        {
          "internalType": "uint8",
          "name": "",
          "type": "uint8"
        }
      ],
      "stateMutability": "view",
      "type": "function"
    },
    {
      "inputs": [
        {
          "internalType": "uint256",
          "name": "amount",
          "type": "uint256"
        }
      ],
      "name": "deposit",
      "outputs": [],
      "stateMutability": "nonpayable",
      "type": "function"
    },
    {
      "inputs": [],
      "name": "exchangeRate",
      "outputs": [
        {
          "internalType": "uint256",
          "name": "",
          "type": "uint256"
        }
      ],
      "stateMutability": "view",
      "type": "function"
    },
    {
      "inputs": [],
      "name": "kink",
      "outputs": [
        {
          "internalType": "uint256",
          "name": "",
          "type": "uint256"
        }
      ],
      "stateMutability": "view",
      "type": "function"
    },
    {
      "inputs": [
        {
          "internalType": "address",
          "name": "borrower",
          "type": "address"
        }
      ],
      "name": "markDefault",
      "outputs": [],
      "stateMutability": "nonpayable",
      "type": "function"
    },
    {
      "inputs": [],
      "name": "name",
      "outputs": [
        {
          "internalType": "string",
          "name": "",
          "type": "string"
        }
      ],
      "stateMutability": "view",
      "type": "function"
    },
    {
      "inputs": [],
      "name": "policy",
      "outputs": [
        {
          "internalType": "contract IPolicy",
          "name": "",
          "type": "address"
        }
      ],
      "stateMutability": "view",
      "type": "function"
    },
    {
      "inputs": [
        {
          "internalType": "address",
          "name": "",
          "type": "address"
        }
      ],
      "name": "principal",
      "outputs": [
        {
          "internalType": "uint256",
          "name": "",
          "type": "uint256"
        }
      ],
      "stateMutability": "view",
      "type": "function"
    },
    {
      "inputs": [
        {
          "internalType": "uint256",
          "name": "amount",
          "type": "uint256"
        }
      ],
      "name": "repay",
      "outputs": [],
      "stateMutability": "nonpayable",
      "type": "function"
    },
    {
      "inputs": [],
      "name": "reserveFactor",
      "outputs": [
        {
          "internalType": "uint256",
          "name": "",
          "type": "uint256"
        }
      ],
      "stateMutability": "view",
      "type": "function"
    },
    {
      "inputs": [
        {
          "internalType": "address",
          "name": "p",
          "type": "address"
        }
      ],
      "name": "setPolicy",
      "outputs": [],
      "stateMutability": "nonpayable",
      "type": "function"
    },
    {
      "inputs": [],
      "name": "slope1",
      "outputs": [
        {
          "internalType": "uint256",
          "name": "",
          "type": "uint256"
        }
      ],
      "stateMutability": "view",
      "type": "function"
    },
    {
      "inputs": [],
      "name": "slope2",
      "outputs": [
        {
          "internalType": "uint256",
          "name": "",
          "type": "uint256"
        }
      ],
      "stateMutability": "view",
      "type": "function"
    },
    {
      "inputs": [],
      "name": "supplyRatePerSec",
      "outputs": [
        {
          "internalType": "uint256",
          "name": "",
          "type": "uint256"
        }
      ],
      "stateMutability": "view",
      "type": "function"
    },
    {
      "inputs": [],
      "name": "symbol",
      "outputs": [
        {
          "internalType": "string",
          "name": "",
          "type": "string"
        }
      ],
      "stateMutability": "view",
      "type": "function"
    },
    {
      "inputs": [],
      "name": "totalBorrows",
      "outputs": [
        {
          "internalType": "uint256",
          "name": "",
          "type": "uint256"
        }
      ],
      "stateMutability": "view",
      "type": "function"
    },
    {
      "inputs": [],
      "name": "totalCash",
      "outputs": [
        {
          "internalType": "uint256",
          "name": "",
          "type": "uint256"
        }
      ],
      "stateMutability": "view",
      "type": "function"
    },
    {
      "inputs": [],
      "name": "totalReserves",
      "outputs": [
        {
          "internalType": "uint256",
          "name": "",
          "type": "uint256"
        }
      ],
      "stateMutability": "view",
      "type": "function"
    },
    {
      "inputs": [],
      "name": "totalSupply",
      "outputs": [
        {
          "internalType": "uint256",
          "name": "",
          "type": "uint256"
        }
      ],
      "stateMutability": "view",
      "type": "function"
    },
    {
      "inputs": [
        {
          "internalType": "address",
          "name": "to",
          "type": "address"
        },
        {
          "internalType": "uint256",
          "name": "a",
          "type": "uint256"
        }
      ],
      "name": "transfer",
      "outputs": [
        {
          "internalType": "bool",
          "name": "",
          "type": "bool"
        }
      ],
      "stateMutability": "nonpayable",
      "type": "function"
    },
    {
      "inputs": [
        {
          "internalType": "address",
          "name": "f",
          "type": "address"
        },
        {
          "internalType": "address",
          "name": "t",
          "type": "address"
        },
        {
          "internalType": "uint256",
          "name": "a",
          "type": "uint256"
        }
      ],
      "name": "transferFrom",
      "outputs": [
        {
          "internalType": "bool",
          "name": "",
          "type": "bool"
        }
      ],
      "stateMutability": "nonpayable",
      "type": "function"
    },
    {
      "inputs": [],
      "name": "utilization",
      "outputs": [
        {
          "internalType": "uint256",
          "name": "",
          "type": "uint256"
        }
      ],
      "stateMutability": "view",
      "type": "function"
    },
    {
      "inputs": [
        {
          "internalType": "uint256",
          "name": "shares",
          "type": "uint256"
        }
      ],
      "name": "withdraw",
      "outputs": [],
      "stateMutability": "nonpayable",
      "type": "function"
    }
  ],
  "bytecode": "0x60a06040526001600555670de0b6b3a7640000600b5567016345785d8a0000600d556000600e556611c37937e08000600f5566470de4df820000601055670b1a2bc2ec5000006011553480156200005557600080fd5b5060405162001a8238038062001a82833981016040819052620000789162000109565b6040518060400160405280600f81526020016e043656c6f50617920506f6f6c204c5608c1b81525060405180604001604052806005815260200164043502d4c560dc1b8152508160009081620000cf9190620001e2565b506001620000de8282620001e2565b5050506001600160a01b0316608052600780546001600160a01b0319163317905542600c55620002ae565b6000602082840312156200011c57600080fd5b81516001600160a01b03811681146200013457600080fd5b9392505050565b634e487b7160e01b600052604160045260246000fd5b600181811c908216806200016657607f821691505b6020821081036200018757634e487b7160e01b600052602260045260246000fd5b50919050565b601f821115620001dd576000816000526020600020601f850160051c81016020861015620001b85750805b601f850160051c820191505b81811015620001d957828155600101620001c4565b5050505b505050565b81516001600160401b03811115620001fe57620001fe6200013b565b62000216816200020f845462000151565b846200018d565b602080601f8311600181146200024e5760008415620002355750858301515b600019600386901b1c1916600185901b178555620001d9565b600085815260208120601f198616915b828110156200027f578886015182559484019460019091019084016200025e565b50858210156200029e5787850151600019600388901b60f8161c191681555b5050505050600190811b01905550565b60805161179c620002e6600039600081816103360152818161083b015281816109b501528181610f5c0152611318015261179c6000f3fe608060405234801561001057600080fd5b506004361061021c5760003560e01c80637d4163d311610125578063b95b92a3116100ad578063d0134cb71161007c578063d0134cb71461045e578063dd62ed3e14610467578063ea21cd9214610492578063f851a4401461049a578063fd2da339146104ad57600080fd5b8063b95b92a314610426578063be81c4d41461042f578063bee12d5314610442578063c5ebeaec1461044b57600080fd5b8063a6afed95116100f4578063a6afed95146103cf578063a9059cbb146103d7578063aa5af0fd146103ea578063b026e6bd146103f3578063b6b55f251461041357600080fd5b80637d4163d3146103a25780638f840ddd146103b557806395d89b41146103be578063a62b75a8146103c657600080fd5b8063313ce567116101a85780634322b714116101775780634322b7141461036057806347bd37181461036957806356150b4114610372578063587a5e501461037a57806370a082311461038257600080fd5b8063313ce56714610304578063371fd8e61461031e57806338d52e0f146103315780633ba0b9a91461035857600080fd5b806318160ddd116101ef57806318160ddd146102aa5780631f68f20a146102b357806323b872dd146102bc5780632ce0f9d6146102cf5780632e1a7d4d146102ef57600080fd5b80630505c8c91461022157806306fdde0314610251578063095ea7b31461026657806317bfdfbc14610289575b600080fd5b600654610234906001600160a01b031681565b6040516001600160a01b0390911681526020015b60405180910390f35b6102596104b6565b604051610248919061151f565b61027961027436600461158a565b610544565b6040519015158152602001610248565b61029c6102973660046115b4565b6105b1565b604051908152602001610248565b61029c60025481565b61029c600e5481565b6102796102ca3660046115cf565b61063e565b61029c6102dd3660046115b4565b60126020526000908152604090205481565b6103026102fd36600461160b565b61073c565b005b61030c601281565b60405160ff9091168152602001610248565b61030261032c36600461160b565b610910565b6102347f000000000000000000000000000000000000000000000000000000000000000081565b61029c610b3f565b61029c600d5481565b61029c60095481565b61029c610ba1565b61029c610c57565b61029c6103903660046115b4565b60036020526000908152604090205481565b6103026103b03660046115b4565b610cc0565b61029c600a5481565b610259610d24565b61029c600f5481565b610302610d31565b6102796103e536600461158a565b610e26565b61029c600b5481565b61029c6104013660046115b4565b60136020526000908152604090205481565b61030261042136600461160b565b610ea4565b61029c600c5481565b61030261043d3660046115b4565b611047565b61029c60085481565b61030261045936600461160b565b611135565b61029c60105481565b61029c610475366004611624565b600460209081526000928352604080842090915290825290205481565b61029c6113ec565b600754610234906001600160a01b031681565b61029c60115481565b600080546104c390611657565b80601f01602080910402602001604051908101604052809291908181526020018280546104ef90611657565b801561053c5780601f106105115761010080835404028352916020019161053c565b820191906000526020600020905b81548152906001019060200180831161051f57829003601f168201915b505050505081565b3360008181526004602090815260408083206001600160a01b038716808552925280832085905551919290917f8c5be1e5ebec7d5bd14f71427d1e84f3dd0314c0f7b2291e5b200ac8c7c3b9259061059f9086815260200190565b60405180910390a35060015b92915050565b6001600160a01b03811660009081526012602052604081205481036105d857506000919050565b6001600160a01b03821660009081526013602052604090205480156105fd5780610607565b670de0b6b3a76400005b600b546001600160a01b03851660009081526012602052604090205461062d91906116a7565b61063791906116be565b9392505050565b6001600160a01b0383166000908152600460209081526040808320338452909152812054600019811461069a5761067583826116e0565b6001600160a01b03861660009081526004602090815260408083203384529091529020555b6001600160a01b038516600090815260036020526040812080548592906106c29084906116e0565b90915550506001600160a01b038416600090815260036020526040812080548592906106ef9084906116f3565b92505081905550836001600160a01b0316856001600160a01b03166000805160206117478339815191528560405161072991815260200190565b60405180910390a3506001949350505050565b60055460011461074b57600080fd5b6002600555610758610d31565b600081116107985760405162461bcd60e51b815260206004820152600860248201526707368617265733d360c41b60448201526064015b60405180910390fd5b6000670de0b6b3a76400006107ab610b3f565b6107b590846116a7565b6107bf91906116be565b90506008548111156107fe5760405162461bcd60e51b81526020600482015260086024820152671a5b1b1a5c5d5a5960c21b604482015260640161078f565b6108083383611435565b806008600082825461081a91906116e0565b909155505060405163a9059cbb60e01b8152336004820152602481018290527f00000000000000000000000000000000000000000000000000000000000000006001600160a01b03169063a9059cbb906044016020604051808303816000875af115801561088c573d6000803e3d6000fd5b505050506040513d601f19601f820116820180604052508101906108b09190611706565b6108cc5760405162461bcd60e51b815260040161078f90611728565b604080518381526020810183905233917ff279e6a1f5e320cca91135676d9cb6e44ca8a08c0b88342bcdb1144f6511b568910160405180910390a250506001600555565b60055460011461091f57600080fd5b600260055561092c610d31565b336000908152601260205260409020546109725760405162461bcd60e51b81526020600482015260076024820152661b9bc81919589d60ca1b604482015260640161078f565b600061097d336105b1565b9050600081831161098e5782610990565b815b6040516323b872dd60e01b8152336004820152306024820152604481018290529091507f00000000000000000000000000000000000000000000000000000000000000006001600160a01b0316906323b872dd906064016020604051808303816000875af1158015610a06573d6000803e3d6000fd5b505050506040513d601f19601f82011682018060405250810190610a2a9190611706565b610a465760405162461bcd60e51b815260040161078f90611728565b8060086000828254610a5891906116f3565b9091555050336000908152601260205260409020548110610ac157336000908152601260205260408120546009805491929091610a969084906116e0565b9091555050336000908152601260209081526040808320839055600b54601390925290912055610aff565b3360009081526012602052604081208054839290610ae09084906116e0565b925050819055508060096000828254610af991906116e0565b90915550505b60405181815233907f5c16de4f8b59bd9caf0f49a545f25819a895ed223294290b408242e72a594231906020015b60405180910390a25050600160055550565b60008060025490506000600a54600954600854610b5c91906116f3565b610b6691906116e0565b90508115610b905781610b8182670de0b6b3a76400006116a7565b610b8b91906116be565b610b9a565b670de0b6b3a76400005b9250505090565b600080610bac6113ec565b90506011548111610beb57670de0b6b3a764000081600f54610bce91906116a7565b610bd891906116be565b600e54610be591906116f3565b91505090565b6000670de0b6b3a7640000601154600f54610c0691906116a7565b610c1091906116be565b600e54610c1d91906116f3565b9050670de0b6b3a764000060115483610c3691906116e0565b601054610c4391906116a7565b610c4d91906116be565b610b9a90826116f3565b600080610c62610ba1565b90506000610c6e6113ec565b9050670de0b6b3a7640000600d54670de0b6b3a7640000610c8f91906116e0565b670de0b6b3a7640000610ca284866116a7565b610cac91906116be565b610cb691906116a7565b610b9a91906116be565b6007546001600160a01b03163314610d025760405162461bcd60e51b815260206004820152600560248201526420a226a4a760d91b604482015260640161078f565b600680546001600160a01b0319166001600160a01b0392909216919091179055565b600180546104c390611657565b6000600c5442610d4191906116e0565b905080600003610d4e5750565b6000610d58610ba1565b90506000670de0b6b3a76400008383600954610d7491906116a7565b610d7e91906116a7565b610d8891906116be565b90508060096000828254610d9c91906116f3565b9091555050600d54600090670de0b6b3a764000090610dbb90846116a7565b610dc591906116be565b905080600a6000828254610dd991906116f3565b92505081905550670de0b6b3a76400008484600b54610df891906116a7565b610e0291906116a7565b610e0c91906116be565b600b54610e1991906116f3565b600b55505042600c555050565b33600090815260036020526040812080548391908390610e479084906116e0565b90915550506001600160a01b03831660009081526003602052604081208054849290610e749084906116f3565b90915550506040518281526001600160a01b0384169033906000805160206117478339815191529060200161059f565b600554600114610eb357600080fd5b6002600555610ec0610d31565b60008111610efb5760405162461bcd60e51b81526020600482015260086024820152670616d6f756e743d360c41b604482015260640161078f565b6000610f05610b3f565b90506000600254600014610f355781610f2684670de0b6b3a76400006116a7565b610f3091906116be565b610f37565b825b6040516323b872dd60e01b8152336004820152306024820152604481018590529091507f00000000000000000000000000000000000000000000000000000000000000006001600160a01b0316906323b872dd906064016020604051808303816000875af1158015610fad573d6000803e3d6000fd5b505050506040513d601f19601f82011682018060405250810190610fd19190611706565b610fed5760405162461bcd60e51b815260040161078f90611728565b8260086000828254610fff91906116f3565b9091555061100f905033826114af565b604080518481526020810183905233917f90890809c654f11d6e72a28fa60149770a0d11ec6c92319d6ceb2bb0a4ea1a159101610b2d565b6007546001600160a01b031633146110895760405162461bcd60e51b815260206004820152600560248201526420a226a4a760d91b604482015260640161078f565b611091610d31565b600061109c826105b1565b9050806000036110aa575050565b600a548181106110c6576110be82826116e0565b600a55611108565b60006110d282846116e0565b6000600a556009549091508111156110ee576000600955611106565b806009600082825461110091906116e0565b90915550505b505b50506001600160a01b03166000908152601260209081526040808320839055600b54601390925290912055565b60055460011461114457600080fd5b6002600555611151610d31565b6006546001600160a01b03166111925760405162461bcd60e51b8152602060048201526006602482015265706f6c69637960d01b604482015260640161078f565b6006546040516333e3231160e21b8152336004820152602481018390526001600160a01b039091169063cf8c8c4490604401602060405180830381865afa1580156111e1573d6000803e3d6000fd5b505050506040513d601f19601f820116820180604052508101906112059190611706565b61123a5760405162461bcd60e51b81526020600482015260066024820152651c995a9958dd60d21b604482015260640161078f565b60008111801561124c57506008548111155b61127e5760405162461bcd60e51b8152602060048201526003602482015262185b5d60ea1b604482015260640161078f565b806008600082825461129091906116e0565b9250508190555080600960008282546112a991906116f3565b90915550503360009081526013602052604081205490036112d857600b54336000908152601360205260409020555b33600090815260126020526040812080548392906112f79084906116f3565b909155505060405163a9059cbb60e01b8152336004820152602481018290527f00000000000000000000000000000000000000000000000000000000000000006001600160a01b03169063a9059cbb906044016020604051808303816000875af1158015611369573d6000803e3d6000fd5b505050506040513d601f19601f8201168201806040525081019061138d9190611706565b6113a95760405162461bcd60e51b815260040161078f90611728565b604080518281526000602082015233917fe1979fe4c35e0cef342fef5668e2c8e7a7e9f5d5d1ca8fee0ac6c427fa4153af910160405180910390a2506001600555565b6000806009546008546113ff91906116f3565b9050801561142d5780600954670de0b6b3a764000061141e91906116a7565b61142891906116be565b610be5565b600091505090565b6001600160a01b0382166000908152600360205260408120805483929061145d9084906116e0565b92505081905550806002600082825461147691906116e0565b90915550506040518181526000906001600160a01b03841690600080516020611747833981519152906020015b60405180910390a35050565b80600260008282546114c191906116f3565b90915550506001600160a01b038216600090815260036020526040812080548392906114ee9084906116f3565b90915550506040518181526001600160a01b03831690600090600080516020611747833981519152906020016114a3565b60006020808352835180602085015260005b8181101561154d57858101830151858201604001528201611531565b506000604082860101526040601f19601f8301168501019250505092915050565b80356001600160a01b038116811461158557600080fd5b919050565b6000806040838503121561159d57600080fd5b6115a68361156e565b946020939093013593505050565b6000602082840312156115c657600080fd5b6106378261156e565b6000806000606084860312156115e457600080fd5b6115ed8461156e565b92506115fb6020850161156e565b9150604084013590509250925092565b60006020828403121561161d57600080fd5b5035919050565b6000806040838503121561163757600080fd5b6116408361156e565b915061164e6020840161156e565b90509250929050565b600181811c9082168061166b57607f821691505b60208210810361168b57634e487b7160e01b600052602260045260246000fd5b50919050565b634e487b7160e01b600052601160045260246000fd5b80820281158282048414176105ab576105ab611691565b6000826116db57634e487b7160e01b600052601260045260246000fd5b500490565b818103818111156105ab576105ab611691565b808201808211156105ab576105ab611691565b60006020828403121561171857600080fd5b8151801515811461063757600080fd5b6020808252600490820152633c3332b960e11b60408201526060019056feddf252ad1be2c89b69c2b068fc378daa952ba7f163c4a11628f55a4df523b3efa2646970667358221220e8cf35693107f772098ef2bd2f30c22a68df59a4f969530e80b46d86fb42b8da64736f6c63430008180033",
  "linkReferences": {},
  "deployedLinkReferences": {}
}